S016000072616C61795F746573745F70726F6A2E7333378C
S315000040000018002059F70100C5770000C9770000A5
S31500004010A70A0A010042000004180FAC0069B200AA
S31500004020000000000000000000000000000000008A
S315000040300000000040A9030000000000000000008E
S315000040400000000000000000FFFFFFFFFFFFFFFF72
S31500004050FFFFFFFF00600B000100000000000000F2
S31500004060FFFFFFFFFFFFFFFF8000000000000000D2
S31500004070000000000000000000000000000000003A
S31500004080000000000000000064440020644400209A
S3150000409000180020B2130400A0720300A00E002036
S311000040A0700E002000E00B000000000085
S315000042000018002059F70100C5770000C9770000A3
S31500004210DDC40000CD770000D577000057F7010018
S3150000422057F7010057F7010057F7010057F701004C
S31500004230D977000057F7010057F7010057F701003B
S315000042404C7800004C7800004C7800004C78000058
S315000042504C7800005596000081A400004C780000C0
S315000042604C7800004C780000599400008109010048
S315000042704C7800004C7800004C7800004C78000028
S315000042804C7800004C7800004C78000057F701008D
S315000042904C780000898B00004C7800004C780000B8
S315000042A04C780000898C0000618C00004C7800007E
S315000042B04C7800004C7800004C78000019D00100C2
S315000042C0B9CF0100B5CF010019C7010015D0010013
S315000042D0BDCF0100DDCF0100C1CF0100EDB6010069
S315000042E055D001004C7800004C780000617B00003E
S315000042F04C780000ADCE00004C78000057F7010066
S315000043004C7800004C7800004C7800004C78000097
S315000043104C7800004C7800004C7800004C78000087
S315000043204C7800004C7800004C7800004C78000077
S309000043304C780000BF
S31500004334F8B500BFF8BC08BC9E467047F8B500BF88
S31500004344F8BC08BC9E46704710B5054C237833B9B3
S31500004354044B13B1044800E000BF0123237010BDD1
S31500004364B022002000000000AC09040008B5034B8D
S315000043741BB10349034800E000BF08BD000000006C
S31500004384B4220020AC090400154B002B08BF134BC4
S315000043949D46A3F5803A00218B460F461348144ADE
S315000043A4121A32F046FF0F4B002B00D098470E4BE3
S315000043B4002B00D098470020002104000D000D4872
S315000043C4002802D00C4800E000BF32F0DBFE2000DB
S315000043D429000CF033FD32F0C1FE00BF00000800D6
S315000043E4001800200000000000000000FE2100204C
S315000043F4644400200000000000000000002307B50C
S31500004404CDE90033012369464FF0FF308DF80230C1
S3150000441413F0DAFC003018BF012003B05DF804FB8A
S315000044240120704701207047012070470022014B8C
S315000044341A70704718390020002210B5164B1A70EE
S31500004444164B197811B11A7001F0E2FA144B1A7866
S31500004454032A0ED8DFE802F0020E100201224FF4FE
S31500004464FA5110481A701FF0D9FA1BF029FA0E4BAC
S31500004474188010BD02221A7000220A4B1A700A4BC9
S315000044841C881BF01DFA04F5F9541F348442F0DA33
S31500004494BDE8104001F00EBB183900208921002028
S315000044A4F6350020283900202432002038B51BF0C8
S315000044B407FA134B134A1C8800231370124A041B71
S315000044C41370124BA4B21A78012A03D001221A706F
S315000044D400F071F9B4F5FA5F0D4D09D32978204639
S315000044E4B1FA81F1490901F031F803232B7038BD83
S315000044F4204601F0B9F807481FF084FAF5E700BF33
S315000045042432002020390020283900208921002067
S31500004514F635002018390020002208B5134B1A700E
S31500004524134B197811B11A7001F078FA114B1A78F5
S31500004534032A0ED8DFE802F0020E100201224FF41D
S31500004544FA510D481A701FF069FA1BF0B9F90B4BB2
S31500004554188008BD02221A704FF4FA6106481FF04B
S315000045645DFABDE8084000F028B900BF18390020FC
S315000045748A210020F7350020003900202632002049
S3150000458438B51BF09DF9134B134A1C88002313708E
S31500004594124A041B1370124BA4B21A78012A03D0D0
S315000045A401221A7000F008F9B4F5FA5F0D4D09D32B
S315000045B429782046B1FA81F1490900F0D7FF03238F
S315000045C42B7038BD204601F033F907481FF01AFA5C
S315000045D4F5E700BF26320020083900200039002004
S315000045E48A210020F735002018390020002208B55A
S315000045F4124B1A70124B197811B11A7001F014FA91
S31500004604104B1A78032A0ED8DFE802F0020E1002C5
S3150000461401224FF4FA510C481A701FF0FFF91BF0EF
S315000046244FF90A4B188008BD02221A704FF4FA613A
S31500004634BDE8084004481FF0F1B900BF183900204E
S315000046448B210020F8350020F8380020283200207D
S3150000465410B51BF035F9114B114A1B88114CC01AC1
S3150000466400231370104A80B21370104B1A78012A73
S315000046741CBF01221A70B0F5FA5F08D32178B1FA8B
S3150000468481F1490900F074FE0323237010BD00F084
S315000046947FFE07481FF0B6F9F6E700BF2832002070
S315000046A410390020F8350020F83800208B2100202E
S315000046B41839002008B5C37B2BB9C37C012B0AD05B
S315000046C403D3022B0AD0812008BD09F09FFA0028E3
S315000046D4F9D00020F8E709F0A9FAF8E709F0B6FAE4
S315000046E4F5E710B5437D0446012B10D10368028A11
S315000046F4598858790EF010FA48B123685B88062B5E
S3150000470418D0192B16D0032B14D0C32013E0637DC5
S31500004714002BFAD12368228A598858790EF0F3F9C6
S315000047240028F2D023685B88032B03D0062B03D022
S31500004734002BEAD1812010BD2046BDE81040FFF7CA
S31500004744B9BF012070470120704701207047B5208A
S31500004754704770470020704700207047002070475C
S3150000476400207047002070470020704700207047E3
S31500004774002070470120704701207047B52070471C
S3150000478400207047002070470020704700207047C3
S31500004794704700207047B520704770470020704767
S315000047A47047812070477047002070478420704707
S315000047B470470020704770477047704770477047CE
S315000047C400207047704700207047002070470000A3
S315000047D4034B1B681878012808BF0220704700BFE6
S315000047E45C2C0020704770477047002070470020FB
S315000047F47047002070470020704700207047002053
S31500004804704700207047002070477047B5207047F6
S31500004814002070470020704700207047704770479B
S315000048247047B5207047704770470020704770473F
S3150000483470477047704700000023FF21084A137031
S3150000484482F8783082F8653082F8773082F87930E9
S3150000485482F87A1082F87B30024A1360704700BFF0
S31500004864FE35002030390020F8B50D468C680A68FC
S3150000487406462849202003F012FF6B687BB92649B7
S31500004884202003F00CFF20200BF060FE234920209B
S3150000489403F01AFFBDE8F84020200BF057BE002EA7
S315000048A4F1D01F4D1F4E204F013C14F8013F23B990
S315000048B41A49202003F008FFE5E7752B18D0762B5C
S315000048C418D0772B18D0732B18D0722B18D0712BC5
S315000048D418D0622B18D06E2B18D02A2B18D0134957
S315000048E4134A212B18BF1146202003F0D8FEDCE71B
S315000048F42946F9E73146F7E73946F5E70D49F3E77F
S315000049040D49F1E70D49EFE70D49EDE70D49EBE7F1
S315000049140D49E9E74DAA030033730300E47203006B
S31500004924F1720300E5720300FC7203003D73030099
S315000049343A73030008730300127303001D73030024
S31500004944287303003273030037730300F0B500269F
S31500004954204A92F87B30184452FA80F090F865C0E9
S3150000496490F8665030461C4BA5EB0C051F78EDB24B
S31500004974F4B2A54225D90CEB060313445B7811B1B6
S315000049840CB92D2B17D0782B1FD0582B05D108B175
S3150000499437240AE0013C012C14D9602B17D8402B8C
S315000049A4F6D83A2B34BF302400241B1BDBB29F42BB
S315000049B403D900FB07300136DAE70523002082F825
S315000049C47930F0BD10270020F5E70028E2D05724FF
S315000049D4EBE700BFFE350020B1210020FFF72CBF16
S315000049E4034B93F8770093F87B30C01AC0B2704734
S315000049F4FE3500200021FFF7A9BF000010B50A4BC1
S31500004A0493F87B20024453FA82F292F86520134409
S31500004A145C78A4F12D0359425941FFF797FF2D2CD9
S31500004A2408BF404210BD00BFFE35002030B50C4A19
S31500004A3492F87B300344C043DBB2C00F39B1D518BA
S31500004A4495F8664095F86550641B241A0C7042FA72
S31500004A5483F393F865301844024B184430BD00BF05
S31500004A64FE350020FF3500202DE9F34115460F469B
S31500004A740DF107011C46FFF7D9FF9DF80730804664
S31500004A84AB4288BF8DF807509DF807600CB1AC1B8C
S31500004A94E4B222460021384632F0CBFB3246414688
S31500004AA4381932F0ADFB304602B0BDE8F08138B5B6
S31500004AB40C4601230822FFF7D7FF04F10803621E00
S31500004AC4043413F8011D12F8015FA3421D7011701E
S31500004AD4F7D138BD38B5054601460120FFF7C4FEB7
S31500004AE4D5E901436CB91C46084D236863B12946D0
S31500004AF4202003F0D4FD21460020FFF7B5FE0C3438
S31500004B04F3E71B786E2BEFD038BD00BF06E1030038
S31500004B1408B50449202003F0C2FDBDE80840202062
S31500004B240BF014BDA572030038B5FFF7F1FF00249E
S31500004B34054D61190C34631953F80C3C03B938BD9F
S31500004B440020FFF791FEF4E7548403002DE9F84FA3
S31500004B541F4B204D53F820201F49202003F09FFDB2
S31500004B642B681BB9BDE8F84FFFF7DEBF1B4FFFF7F5
S31500004B74CFFF0026B946DFF86CA097F87B30F4B275
S31500004B84013B9C4204DB2868BDE8F84FFFF7A2BF4F
S31500004B9447FA86F393F8658000234C44C84494F896
S31500004BA4662094F8651003F1010B521ADBB2D2B2F7
S31500004BB4934205D30A49202003F071FD0136DCE750
S31500004BC443445A785146202003F069FD5B46E6E7E4
S31500004BD4481D002030390020A0720300FE35002055
S31500004BE407E103009D9403002DE9F74F884C94F8E0
S31500004BF47730002B00F0A180864B671C1B7813F0DE
S31500004C04010F1FD00025844E14E0631993F8662023
S31500004C1493F865302020D21A44FA85F393F8651088
S31500004C24D2B239440BF08DFC3146202003F037FD17
S31500004C340135EDB294F87730AB42E6D877492020B7
S31500004C4403F02DFD002694F87730DFF8DCE10193BC
S31500004C54734B4FF00008714645461EF8012B91F838
S31500004C6401C007EB020AACEB020C5FFA8CFC186875
S31500004C74002852D00138D14619E02AB9002D4AD06D
S31500004C844FF001080C33F2E719F8011BA1F1410BAF
S31500004C94BBF1190F98BF2031A2F1410B98BFC9B2DD
S31500004CA4BBF1190F9CBF2032D2B28A42EAD1A9EBDA
S31500004CB40A01614510F8012FDFD1002ADED11D4615
S31500004CC4584B01361D6094F87B30F6B2013384F8F4
S31500004CD47B30D5E90123002A35D01B786E2B31D0E1
S31500004CE43F2B23D04FF000094FF0070BC84604238F
S31500004CF494F87710AA68B14212F808702BD8AFB1AD
S31500004D04904498F801302A2B10D0212F1CBF03237E
S31500004D1484F879300AE01D46B4E7B8F1000F01D1F2
S31500004D24002DCDD10223002584F8793094F879003A
S31500004D34002869D168680EF019FD03B0BDE8F04F8C
S31500004D44FFF77ABD1346019AB24282D803221D4662
S31500004D5484F87920EAE7732F09D8712F0BD2212F13
S31500004D641FD0622F3CD0002F4BD1032246E0A7F17F
S31500004D747502022A45D8752F29D0762F2AD0732F8B
S31500004D842BD0722F47F6FF7A18BF4FF0FF3A012156
S31500004D9448460193FFF7DAFD5045019B01D984F893
S31500004DA47930AA68424452782A2A94F879201CBF9A
S31500004DB408F101085FFA88F8002AB7D1212F1FBF2E
S31500004DC4013609F10109F6B25FFA89F990E74FF065
S31500004DD4FF0ADCE74FF6FF7AD9E74FF07F0AD6E7FA
S31500004DE494F87B204A4454FA82F292F865202244CD
S31500004DF45278222AD5D07B2AD3D0052284F879206A
S31500004E04CFE784F879B0CCE7FFF7A0FE95E700BFBB
S31500004E14FE350020AD36002007E10300E2720300F0
S31500004E245484030030390020633600202DE9F34111
S31500004E3406460D464FF000085C4C5D4F66B90DF111
S31500004E44070128460BF078FB78B1262800F0A980E4
S31500004E54012384F879304BE0002D00F0A28016F887
S31500004E64013B013D8DF80730EDB23A789DF80730E5
S31500004E740D2A3B7001D10A2BE0D00D2B0CD0A3F1E7
S31500004E840A025142514122788846042AD6D8DFE8DC
S31500004E9402F0051D263C31000121F4E721B1FFF79C
S31500004EA4A3FE4FF00108C9E7202B63D0222B07D1BC
S31500004EB40223237094F87820642A5DD10623C8E778
S31500004EC47B2B01D10323F4E70123F2E709B9202B55
S31500004ED4F0D194F87730112B3FD10323B9E7222B75
S31500004EE4F7D00029E6D005234FF0010884F879307D
S31500004EF404232370B8F1000FA0D094F8790008B108
S31500004F04FFF724FEFFF798FC98E77D2B94F87A00C8
S31500004F1403D1FF28DDD005239BE7602B13D8402B54
S31500004F2413D8392B8CBF002230229A1AD2B20F2AF8
S31500004F3410D8FF280BD0FF2302EB00128DF80720B0
S31500004F4484F87A30B6E75722EFE73722EDE784F89C
S31500004F547A2073E7202BDED170E70133DBB294F8B5
S31500004F64782084F87730234483F86520002323705F
S31500004F74002994D1884661E72378012B09D19DF84D
S31500004F840730A3F1410119299CBF2033DBB28DF808
S31500004F9407309DF80710A3180132597084F8782059
S31500004FA44CE7404602B0BDE8F08100BFFE35002064
S31500004FB40837002049BA89B24840C0F3031141407A
S31500004FC4080380B24840C3B280EA431070471DF01C
S31500004FD475BA704770477047704770477047704797
S31500004FE47047704770477047704770470020704796
S31500004FF470470020704770477047002070470020B4
S31500005004704770470120704701207047704770470A
S315000050147047704770477047704700002DE9F047A6
S315000050240024204DDFF89C90DFF89CA05FFA84F8FA
S3150000503440461EF02FFAFF2806460CD122461A498E
S31500005044287803F041FB287801340BF07FFA152CFD
S31500005054ECD1BDE8F087154B47B213EA270338BFF6
S31500005064534659F824201249287803F02DFB002FC3
S31500005074E9DA14B1B8F1030F08D10E4B16F0010F9B
S315000050840D49287818BF194603F01EFB0A2CDAD1FD
S315000050940A4B16F0010F0A49287818BF194603F07F
S315000050A413FBD0E7F42100205D740300E4720300CF
S315000050B485740300207403003674030048740300E7
S315000050C452740300CC7303000CDF030010B50648CA
S315000050D41EF098FC05481EF095FCBDE81040044BF4
S315000050E404481B69184700BF3C3A0020443A002094
S315000050F4603F0020D23600200020704770B500249F
S315000051041B4B86B01B4901201C70CDE90344ADF846
S3150000511414400FF015FB0CF0AFFF022803AE23D1A9
S315000051241023154D8DF80E302B780A228DF80F308A
S3150000513404230621CDE900630820104BADF80C408A
S315000051440EF0C8FA012108460EF008FB2146204657
S315000051540EF000FB50B10A4901200FF0F1FA6989FB
S31500005164034889021EF05AFC06B070BD0549F3E7F0
S315000051748C3A00203D760300603F0020DC8D03005E
S31500005184557603006E760300F0B5002487B0054615
S315000051940F46CDE90344ADF814400CF06DFF022828
S315000051A403AE1ED110238DF80E3004230A22CDE956
S315000051B400630621114B0820ADF80C408DF80F70E2
S315000051C40EF088FA681C0121C0B20EF0C7FA214617
S315000051D420460EF0BFFA044628B9094901200FF00B
S315000051E4AFFA07B0F0BD074901200FF0A9FA22462D
S315000051F4054901200FF0A4FAF3E700BFDC8D030094
S31500005204537703005F7603007077030010B590B000
S3150000521403AC32220021204632F00BF80CF02CFFAE
S3150000522402281CD1144B154904A8039332F013F831
S3150000523410230A22CDE900430021114B08200EF069
S3150000524449FA012108460EF089FA002108460EF0B3
S3150000525481FA044628B90B4901200FF071FA10B0FF
S3150000526410BD094901200FF06BFA224607490120B7
S315000052740FF066FAF3E700BF0500420C4677030019
S31500005284DC8D0300537703005F7603007077030019
S3150000529438B500251248134C4FF4A57105701EF05D
S315000052A4BDFB23785A1C022B227006D90E4B1A78A2
S315000052B4012A0AD002D3022A0BD038BD01220B4898
S315000052C41A70BDE838401EF09DBB022208481A70C9
S315000052D4F7E708481D701EF095FB2570EDE700BF43
S315000052E4303A00206E370020633700204C3A002005
S315000052F47C3A0020543A002010B500240F4B104A83
S315000053041C701378032B02D80133137010BD14706C
S315000053140CF0B2FE0228F9D10A4BDC7023F0B0F887
S3150000532404460028F2D01AF0B6FE2346BDE8104023
S315000053340246054901200FF003BA00BF443A002093
S3150000534407370020603F0020BF76030007B5054BF2
S315000053540090054A054901200FF0F2F903B05DF803
S3150000536404FB00BF16C3030002760300077603009E
S3150000537410B5054901200FF0E3F9BDE81040034BD1
S3150000538401215B6902201847DC750300603F002099
S31500005394132870B513D91AF093FA144C144D2080BF
S315000053A46B69012102209847124922880B880E4610
S315000053B49A4205D903F2F313934208DB0A8070BDBF
S315000053C4C3F57F43FF331344B3F5FA7FF6DB0A498B
S315000053D401200FF0B5F92388072033802B6A9847FC
S315000053E4BDE8704005481EF00DBB00BF40330020E9
S315000053F4603F002090330020EF750300543A0020EC
S31500005404F8B51AF05DFA4A4C0746E3699847002254
S31500005414484B494E1A7033780546032B4BD8DFE8C0
S3150000542403F002193A60636A0220984760B9636A16
S315000054340320984740B9012333703E48BDE8F8403D
S315000054441EF0E0BA013313700A21BDE8F84039486A
S315000054541EF0E4BA236A04209847E36A01209847B9
S31500005464AF4207D905F1C703BB420BDBD235E91BB3
S3150000547489B2EAE7C5F57F43FF333B44C72B01DC1A
S31500005484D335F4E7022300203370A36B9847236BCC
S3150000549401209847D1E7636B9847054660B1236BB3
S315000054A400209847A36B002098470F2121481EF03F
S315000054B4B5FA03233370F8BD204A1378092BC1D9F2
S315000054C4236B10709847A36B284698470323194803
S315000054D433701EF097FABDE8F840194901200FF021
S315000054E42FB9184901200FF02BF9A378D3B9E36833
S315000054F40121022098470123A3700720636A984775
S3150000550438B1A36A072098470F4A137843F0040377
S315000055141370A1780220FFF737FE0023074A337081
S315000055241370C8E7E3680021022098470023E3E7E5
S31500005534603F0020543A00206B3700207E3700205D
S315000055447478030090780300D236002010B505491C
S3150000555401200FF0F5F8BDE81040034B01215B690B
S315000055640020184784750300603F002010B50549E4
S3150000557401200FF0E5F8BDE810400121024B084672
S315000055845B691847B6750300603F0020054B064A61
S3150000559459891B7A118093707F210423242002F0F9
S315000055A4EDBE00BF603F0020243A002038B5144DFC
S315000055B4042328467F22242102F0A6FE114C2888C3
S315000055C4AB786081237230B9B42320726381E36AB5
S315000055D49847FFF7DBFF237A7BB100232A880A4921
S315000055E4012023706370A3700FF0AAF8AA78074904
S315000055F40120BDE838400FF0A3B80123EEE700BF51
S31500005604243A0020603F0020197703002D77030019
S3150000561407B50BF0EBFD03F0F7FB0023012241F67F
S31500005624FF71CDE900320A480A4A03F0A8FCFFF7E5
S31500005634BDFF09481EF0E6F9084B09485989890255
S315000056441EF0ECF9074803B05DF804EB1EF0DAB976
S31500005654943A0020D1500000303A0020603F0020E8
S315000056648C3A0020283A0020132870B513D91AF072
S3150000567427F9144C144D20806B69012100209847AA
S31500005684124922880B880E469A4205D903F2F3136F
S31500005694934208DB0A8070BDC3F57F43FF3313448E
S315000056A4B3F5FA7FF6DB0A4901200FF049F823889F
S315000056B4084833801EF0A6F92B6A0520BDE8704021
S315000056C4184700BF42330020603F00209233002079
S315000056D4977503004C3A0020F8B51AF0F1F84C4CD3
S315000056E40746E369984700224A4B4B4E1A703378B3
S315000056F40546032B4ED8DFE803F002183D65636ABE
S315000057040320984728B1454901200FF019F80A21CA
S315000057141AE0636A042098470028F4D10123337001
S315000057243C48BDE8F8401EF06DB9236A022098474C
S31500005734E36A01209847AF420BD905F1C703BB4280
S315000057440FDBD235E91B89B23248BDE8F8401EF0BA
S3150000575465B9C5F57F43FF333B44C72B01DCD3351D
S31500005764F0E7022300203370A36B9847236B0120D4
S315000057749847D5E7636B9847054660B1236B0020CD
S315000057849847A36B002098470F2122481EF046F93C
S3150000579403233370F8BD224B1A78511C092A197059
S315000057A4B5D91870236B9847A36B284698470323EB
S315000057B4184833701EF026F9BDE8F840194901204F
S315000057C40EF0BEBF012018490EF0BAFF2078E36838
S315000057D4C0B901219847012323700520636A9847BD
S315000057E438B1A36A05209847104A137843F0010399
S315000057F4137000200A4B307018702178BDE8F84009
S31500005804FFF7C2BC0021084698470023E4E700BF1F
S31500005814603F00204C3A002069370020EB770300F4
S315000058247F370020FE7703001A780300D236002063
S31500005834132870B513D91AF043F80121134C144DEB
S3150000584420806B6908469847124922880B880E46C1
S315000058549A4205D903F2F313934208DB0A8070BD1A
S31500005864C3F57F43FF331344B3F5FA7FF6DB0A49E6
S3150000587401200EF065FF2388062033802B6A9847A3
S31500005884BDE8704005481EF0BDB800BF4433002093
S31500005894603F002094330020C97503007C3A002041
S315000058A4F8B51AF00DF8514C0746E36998470022FB
S315000058B44F4B504E1A7033780546032B00F28F80F7
S315000058C4DFE803F00218396D636A0220984728B1AD
S315000058D40A21BDE8F84046481EF0A0B8636A0420D1
S315000058E498470028F4D1012333704148BDE8F840B5
S315000058F41EF088B8236A03209847E36A0120984774
S31500005904AF4207D905F1C703BB420BDBD235E91B0E
S3150000591489B2DEE7C5F57F43FF333B44C72B01DC81
S31500005924D335F4E7022300203370A36B9847236B27
S3150000593401209847D9E7636B98470546B0B1236BB6
S3150000594400209847A36B0020984703230F2128487B
S3150000595433701EF063F819F0B3FF274B0246186044
S3150000596426490120BDE8F8400EF0EABE244B1A7819
S31500005974511C092A197001D80121AAE71870236B52
S315000059849847A36B284698470323194833701EF09B
S3150000599439F8BDE8F8401B4901200EF0D1BE1A497A
S315000059A401200EF0CDFE6378D3B90121E3680846E1
S315000059B49847012363700620636A984738B1A36A3F
S315000059C406209847114A137843F00203137061784E
S315000059D40120FFF7D9FB0023094A33701370F8BD81
S315000059E4E3680021012098470023E3E7603F002095
S315000059F47C3A00206A370020383A00202E780300CB
S31500005A04803700204478030060780300D2360020F3
S31500005A140A2101481EF002B8843A00200A210148EE
S31500005A241DF0FCBF5C3A00200A2101481DF0F6BFB8
S31500005A346C3A002010B50024074B06201C7001F0B8
S31500005A444BFC012806D1054B2146BDE810405B6995
S31500005A540220184710BD00BF6C3A0020603F0020AA
S31500005A6410B50024064B20461C7001F035FC0128B5
S31500005A7405D1044B2146BDE810405B69184710BDAB
S31500005A845C3A0020603F002010B50024074B01203B
S31500005A941C7001F021FC012806D1054B2146204645
S31500005AA4BDE810405B69184710BD00BF843A00206A
S31500005AB4603F002008B50CF0DFFA50B9094A938814
S31500005AC443F00103938008490120BDE808400EF025
S31500005AD437BE0238C0B20128F5D8024A938843F08B
S31500005AE40203EFE7603F0020AA750300002208B511
S31500005AF41F4B1A701F4B1978062937D8DFE801F0B7
S31500005B04040F111315212A0001221A70FFF77EFBD8
S31500005B14BDE808404FF47A7115481DF07FBF022294
S31500005B24F3E70322F1E70422EFE705221A70124B8A
S31500005B3400201978FFF728FB104901200EF000FE1B
S31500005B44E6E706221A700C4B01205978FFF71CFB76
S31500005B540B49F2E71A70084B02209978FFF714FBF9
S31500005B64BDE80840074901200EF0EABD08BD00BFA4
S31500005B74643A002001370020603F0020D1760300FC
S31500005B84E97603000177030010B5164901200EF0EB
S31500005B94D7FD0022144B1A700CF06EFA02280FD1AE
S31500005BA4124CA388DB0516D5114901200EF0C8FD59
S31500005BB4A38823F48073A380BDE81040FFF796BF43
S31500005BC4032808D10B4901200EF0BAFD074A938831
S31500005BD443F4807393804FF47A71BDE81040024811
S31500005BE41DF01CBF82770300283A0020603F002086
S31500005BF4A5770300C877030037B500253B4B3C4C1B
S31500005C041D700CF039FA022817D1A388D80714D5C9
S31500005C14384901200EF094FDA388032023F00103E4
S31500005C24E570A380A57101F02BFE42F21071324893
S31500005C3403B0BDE830401DF0F1BEA38899070ED02D
S31500005C44E3780BB92823A371032001F041FEA3884E
S31500005C54DA0724D5A379272B03D80133A37103B01C
S31500005C6430BD0025E378A5715A1C112BE27009D8C2
S31500005C7407F000FE214B0090214A224901200EF034
S31500005C845FFDECE7204901200EF05AFD032001F0E8
S31500005C94F7FDA388E57023F00103A380DFE79B07E4
S31500005CA4DDD50EF079F923781BB10A2117481DF0CA
S31500005CB4B5FE637823B14FF4967115481DF0AEFE18
S31500005CC4A37823B14FF4167112481DF0A7FE0025E0
S31500005CD4B423284663812572E36A9847FFF756FC86
S31500005CE4A388E57123F00203D7E700BF3C3A0020FE
S31500005CF4603F00208A760300643A002040C1030016
S31500005D040276030007760300A97603004C3A0020C6
S31500005D147C3A0020543A002010B504461F4901205D
S31500005D240EF00EFD2368E17C58790138012816D05F
S31500005D34022823D038B9012907D1194B1B785BB93E
S31500005D4418481DF05FFE002010BD0029FBD1144B3E
S31500005D5419780029F4D10846FFF716FAF3E7012962
S31500005D6405D10F4B5B78002BF5D10F48E9E70029E5
S31500005D74E9D10B4B59780029F7D1EDE7012905D173
S31500005D84074B9B78002BE7D10848DAE70029DAD1DC
S31500005D94034B99780029DFD0F6E700BF1B76030092
S31500005DA4603F00204C3A00207C3A0020543A002000
S31500005DB482B2074B4AB1000C1A8008BF4FF6CE22B6
S31500005DC4044B14BF18801A8070474BF6EF62F2E753
S31500005DD47421002076210020094B1888020448BF4C
S31500005DE480F0620042001A80064A1388190444BFF0
S31500005DF483F4805383F00B03590011805840704795
S31500005E0474210020762100200022034B1870034BD6
S31500005E141970034B1A707047ED350020EC350020DD
S31500005E24003700202DE9F04F234E85B0337807461E
S31500005E348846002B3DD04FF6FB73204D98422C78B4
S31500005E4403D952211E4801F033F91E4B4FF0000BC3
S31500005E549A4632785FFA8BF94A45187811D948443C
S31500005E6402A9C0B2019327F057FD082241460DEB63
S31500005E74020031F0ABF90BF1010B019B0028E8D1CC
S31500005E844C462B78A34207D1631C3278DBB29A4284
S31500005E942B7004BF00232B709AF8003041461C4433
S31500005EA4E4B2204627F076FE18B93946204627F094
S31500005EB401FD05B0BDE8F08FEC3500200037002069
S31500005EC4A3780300ED350020024B187800F07F001C
S31500005ED4704700BF81370020034B18780130C0B2E9
S31500005EE4187000F07F007047813700201FB5030A41
S31500005EF48DF80E300323009303AB8DF80D0000F0EC
S31500005F04C7F905B05DF804FB1FB58DF80F10042121
S31500005F14030A8DF80E30009103AB8DF80D0000F0E6
S31500005F24B7F905B05DF804FBF0B589B01768BDF89C
S31500005F3438509DF83C60CDF8097057688DF81250BA
S31500005F44012E4FEA1525DDF840C0BDF84440CDF8D2
S31500005F540D708DF811308DF813508DF8146016D02D
S31500005F64032E1BD1DCF80030CDF81530DCF80430F4
S31500005F74CDF819309DF848308DF81D30162300935E
S31500005F84BDF84C2002AB00F083F909B0F0BD8DF8E2
S31500005F941540240A8DF816400F23F0E70120F4E794
S31500005FA41FB50C46194602238DF80D2000930A46A8
S31500005FB403AB0146204600F06BF904B010BD10B5E2
S31500005FC41C460B6886B0CDF80D304B688DF815204D
S31500005FD4CDF811300A2322460093342103AB00F096
S31500005FE457F906B010BD000030B5002485B0ADF8F1
S31500005FF40A20021D92B2012A1D46ADF80840ADF8EA
S315000060040610ADF8044003D94FF6FF72904207D14B
S31500006014064A2B46127801A925F00AFD05B030BDC3
S31500006024014601AA204625F0C9FDF7E7FC21002018
S315000060342DE9F04F834689B00C461F4690463AB385
S3150000604410461EF0FBF8C0F3470A1FB338461EF08D
S31500006054F5F8C0F34709FFF73FFF4FEA1B238DF816
S3150000606418008DF81B400022240A062106A88DF884
S3150000607419B08DF81A308DF81C408DF81DA01EF04D
S31500006084F1F9ADF8160038B9182009B0BDE8F08F5B
S315000060949246DAE7B946DEE74FEA4A01CBB2DC1D9F
S315000060A4E4B204EB4901C9B20DF1160001931EF0E6
S315000060B4CCFB0028E8D10646F2B29245BDF816306C
S315000060C415D801994A46063101F0FE0118461EF01C
S315000060D42DFC0026F5B2A945BDF816802AD84346FC
S315000060E4BDF8482006215846FFF77EFFCDE7550048
S315000060F4EDB229464046039302921EF003FC029A2F
S31500006104039BD11C4900024601F0FE0118461EF00D
S315000061140DFCBDF81630691CC9B2404602931EF048
S31500006124F1FB029BE91D0246C9B218461EF0FEFBAE
S315000061340136C1E76D00EDB2294638461EF0E2FB92
S315000061442146024640461EF0F1FB691CC9B2384698
S31500006154BDF816801EF0D6FB611C0246C9B2404645
S3150000616402341EF0E3FB0136E4B2B3E7F0B589B0BE
S315000061740E4602A905460CF04BF8002800F0818073
S31500006184FFF7AAFE8DF810001DF03EFB8DF81100F6
S315000061941DF03AFB3D4A000A13688DF81200CDF84B
S315000061A4133053680F21CDF81730BDF8083000229C
S315000061B48DF81C301B0A8DF81D309DF80D3004A88F
S315000061C48DF81B508DF81E301EF04CF9ADF8060004
S315000061D4002858D000279DF80D30FAB2934207F1F3
S315000061E4010718D801230DF10E011A460DF1060018
S315000061F41EF074F900279DF80E30FAB2934207F1A7
S31500006204010723D8BDF80630324620210020FFF7C7
S31500006214EBFE09B0F0BD002128460CF025F8012359
S315000062248DF805001A460DF1050104460DF1060028
S315000062341EF054F90123240A1A460DF105010DF145
S3150000624406008DF805401EF049F9C4E701212846E9
S315000062540CF00AF801238DF805001A460DF1050124
S3150000626404460DF106001EF039F90123240A1A46E4
S315000062740DF105010DF106008DF805401EF02EF90D
S31500006284B9E7A320C5E71820C3E700BF5844002098
S315000062942DE9F0411C460E4617469DF81880054622
S315000062A4FFF71AFE00222070414620461EF0DAF857
S315000062B4034630B13A4631462846BDE8F041FFF779
S315000062C493BE1820BDE8F08108B5FFF7A1F90FF0D9
S315000062D4F9FABDE8084005F043BD08B5FEF760FAD3
S315000062E4BDE808400FF018BB08B5FEF75CFABDE838
S315000062F4084006F0DFBFFFF70FBDFEF77EBA0020A9
S31500006304704738B504460D46FEF791FA29462046ED
S31500006314BDE838400AF0F6BFFEF771BAFEF77CBA5C
S315000063240222062101200FF0E9BF422206210120A4
S315000063340FF0E4BF4122062101200FF0DFBF012246
S31500006344062110460FF0DABF4022062101200FF085
S31500006354D5BF0022062101200FF0D0BF4022032121
S3150000636401200FF0CBBF0122032110460FF0C6BF58
S315000063740022032101200FF0C1BF022203210120C4
S315000063840FF0BCBF0122002109200FF0B7BF0000A7
S315000063942DE9F74F07460D46144699464FF0010B73
S315000063A4DFF8708003F10C0A15B903B0BDE8F08F6D
S315000063B4102D2E4628BF10264946154AF3B251F829
S315000063C4040B514542F8040BF9D101939AF80010D5
S315000063D410481170002288F80F4088F80E2088F8BB
S315000063E400B027F073FC3A4601340B48019BE4B233
S315000063F412F8011B10F801CF81EA0C0102F8011C06
S31500006404D11BC9B29942F3D3AD1BADB21746CBE744
S31500006414B1360020B0360020AF3600202DE9F04F0B
S3150000642485B002930F9B8046019303461646BDF83A
S315000064343890344A0D4600F10C0153F8040B8B4294
S3150000644442F8040BF9D11B784FF0020A1370492362
S315000064542D4C237020464FEA1923A37384F80F901A
S31500006464A34627F033FC5246237883EA1623237087
S3150000647463787340637000271EE0C2F11001F31BBA
S3150000648489B29BB28B4228BF0B462946501B039008
S315000064940398A1EB050C1FFA8CFC08189C45C0B2A6
S315000064A41AD31A44D2B21F44102A1D44BFB203D1D0
S315000064B4204627F00BFC0022B742DED312B1584621
S315000064C427F004FCBAF1010F4FF00002029D4E467C
S315000064D40BD04FF0010ACEE711F801CB1BF800E010
S315000064E48CEA0E0C0BF800C0D2E7074B01991B6827
S315000064F401980B604346042105B0BDE8F04FFFF751
S3150000650447BF00BFB1360020B0360020F7B5099F5B
S31500006514BDF820400646CDE900471D46FFF77EFF3D
S315000065242CB13346012221462846FFF731FF0020CD
S3150000653403B0F0BD2DE9F7431E460546884691464D
S31500006544BDF828700D4C0346394630460122FFF744
S315000065541FFF33464A4641462846CDE90074FFF7F5
S315000065645DFF042221460B9830F030FE002814BF4C
S315000065747E20002003B0BDE8F08300BFF93500207B
S3150000658473B51C46044D8B181E59CDE900452E6083
S31500006594FFF7D0FF02B070BD5237002000207047CD
S315000065A4002070470020704770477047F7B50024F5
S315000065B4094E0A4F0A4D56F8243003B93B6835F89C
S315000065C41420084900920120224601340EF0B8F83E
S315000065D4292CF0D103B0F0BD9020002044210020E6
S315000065E4684200206F8F030008B5FFF7DFFFBDE8A0
S315000065F4084000F0F1B8000007B50020FEF7FAF9EC
S31500006604C2B2282A0DD8084B53F822300BB9074BCF
S315000066141B680749012031F81210009105490EF054
S315000066248FF803B05DF804FB90200020442100207D
S31500006634684200206F8F0300FFF7B8BF7047000061
S3150000664438B50020FEF7D6F904460120FEF7D2F944
S315000066540546054901200EF073F8A9B2E0B2BDE87B
S31500006664384000F0D1B800BF7A8F0300F7B5002494
S31500006674094E0A4F0A4D56F8243003B93B6835F8DB
S315000066841420084900920120224601340EF058F8DD
S31500006694292CF0D103B0F0BD902000204421002025
S315000066A4164200206F8F030073B502AB03E90600A0
S315000066B40446019D1CF04AFD064620461CF054FD86
S315000066C49DF800008EB1202C0FD82B78012B37D8DB
S315000066D44FF6FF75394903EB4313234431F813206E
S315000066E4AA4202D0013221F813204FF6FF72344B2E
S315000066F4344933F8146031F8145096421CBF721CA6
S3150000670423F8142004F0FD02092A31D19A8A898AD1
S3150000671402448A42B4BF9A82998233F81430AB4257
S3150000672404D3AE4202D22046FEF748F80025264B93
S31500006734EA5CA24228D00135112DF9D102B070BD10
S31500006744022BD2D14FF6FF714FF6FF751B4B33F870
S3150000675414208A421CBF013223F8142004F12102BA
S3150000676433F81210A9421CBF013123F81210BCE7FA
S315000067741D2CD2D15A8F1118A942BDBF02F1FF3286
S3150000678412185A875D87C8E719F087FC0F4B044631
S315000067941B78834203D8DD210D4800F089FC4FF6AF
S315000067A4FF710C4A04EB04142C4432F814308B4267
S315000067B4C4D0013322F81430C0E700BFBA42002027
S315000067C46842002016420020E6920300CE210020F3
S315000067D462920300F441002052220021014830F065
S315000067E428BD00BF684200205222FF21014830F034
S315000067F420BD00BF1642002008B5FFF7EDFFBDE837
S315000068040840FFF7F1BF0000014B23F81010704752
S3150000681416420020032310B50F4C1022C4E904339A
S315000068240E4B0F49E3610023A16121660D49E01D6A
S31500006834C4E919120C49A3626362E3622367E3663F
S315000068446367226230F007FD0849204630F003FDF5
S315000068542023A37110BD00BF00380020DC350020C2
S31500006864F7920300CC350020009303000493030041
S315000068742DE9F84F1F4B16461A7881468A469846E4
S315000068840AB9FFF7C7FF182707FB09873D6FD7F833
S315000068946CB05D452BD9BC6E796E641BB44228BFBF
S315000068A4344629445046224630F09FFCBB6E2544AC
S315000068B4AB4208BF0025A244361BABEB050B5E4575
S315000068C428BF5E4656B1182303FB0983596E324628
S315000068D42944504630F089FC3444354424B1182305
S315000068E403FB0988C8F870502046BDE8F88F0024D9
S315000068F4E3E700BF00380020F8B504460E46174605
S3150000690404F047FA3A46054631462046FFF7B0FFFB
S315000069140446284604F043FA2046F8BD2DE9F84318
S31500006924124D1E462B788146884617460BB9FFF74B
S3150000693471FF04F02EFA00244FF0180C69690CFB61
S3150000694404535A6E2AB10134A142F8DC4FF0FF34E5
S3150000695407E0A142FADDC3E918989F661A67DA666A
S315000069645E6704F01CFA2046BDE8F8830038002070
S31500006974FFF750BF70B54FF060441A4B00261A68F3
S31500006984194D42F001021A60DA680C2042F0807256
S31500006994DA60164BC4F8B03F0223C4F8006EC4F89C
S315000069A4806EC5F8F03003F0FDFE114B00F5D520DE
S315000069B400F2FC40B0FBF3F00E4A0F4B013828619D
S315000069C4C4F8406E1A600D4BC4F8803E4FF48073D1
S315000069D4C5F80433D4F8003E43F48073C4F8003E8B
S315000069E470BD00BFF0ED00E0000004E055CEACC57C
S315000069F4F8590D00FF030040001000E00D000100EF
S31500006A0410B501240F4B00201C6004F060FA2346E5
S31500006A1404220321002004F0B5FA204610F06AFE91
S31500006A24FFF7A8FF10F067FE074B1C70FFF7A0FFE7
S31500006A342346402205490648FFF770FF054B1860B8
S31500006A44C00F10BD44D40340813600201237002005
S31500006A540B930300B81F0020024B1868003018BFC0
S31500006A6401207047F0ED00E0D123054A0370137846
S31500006A744170090A8170591CC37011700420704753
S31500006A84573700202DE9F74F0E788346042E0F461C
S31500006A9461D918F015FFDFF8C48082464FF6FF71FE
S31500006AA40024C146751DEDB2D8F800305BB1A5428D
S31500006AB409D9019118F004FFA0EB0A0080B2B0F5E1
S31500006AC4FA7F019907D9281B18BF012004233B70BC
S31500006AD403B0BDE8F08FB4B3012C37D0EA1E631CB3
S31500006AE49442DBB21CD1CCB24FF06042D2F8800E95
S31500006AF4C00713D51046D9F80CC04CF0807CC9F8F1
S31500006B040CC0D0F800CE4CF4807CC0F800CED0F88F
S31500006B1420C0BCF1000FEED082F820401C46C3E72B
S31500006B24AA1E944202D1C1F30724DDE76A1E9442E9
S31500006B340FD05C4414F8024C01932046FEF73AFA4F
S31500006B44019B0146D0E75B240123CDE734460223AB
S31500006B54CAE75D24C8E70020B8E700BFF0ED00E00F
S31500006B6400B5084B91B0402269461868FFF7C4FE89
S31500006B7420B1C2B26946122010F06CFD11B05DF866
S31500006B8404FB00BFB81F002000F0F4B810B50020C5
S31500006B9490B0FDF72FFF40226946044600F038FA0C
S31500006BA4034630B12246064901200DF0C9FD10B056
S31500006BB410BD0122694608200DF054FDF7E700BF19
S31500006BC41B93030010B500F093F8002814BF792234
S31500006BD46E22144901200DF0B3FD00F089F8F8B1D6
S31500006BE400F05CFA002814BF79226E220E490120B7
S31500006BF40DF0A6FD02220D4901200DF0A1FD0C4B5E
S31500006C040C491C1F53F8042C01200DF099FD04F1C6
S31500006C141003E26807490120BDE810400DF090BD5D
S31500006C243F22E3E789940300A0940300B094030091
S31500006C34B03A0020CF94030070B500F07FF8044604
S31500006C441F4901200DF07CFD2CB9BDE870401D499B
S31500006C5401200DF075BD00F079F8054622691A4940
S31500006C64012026880DF06CFD6288184901200DF07C
S31500006C7467FD1749A28801200DF062FD6388E2884A
S31500006C8413F0100F14BF1349134901200DF058FDDA
S31500006C94A268124901200DF053FDE2681049012053
S31500006CA40DF04EFD0F4A104B1049B6F5817F28BFF3
S31500006CB4134601202A46BDE870400DF041BD00BFD1
S31500006CC4659303007293030093930300B193030047
S31500006CD4D2930300EF9303000C9403002A94030059
S31500006CE448940300539303005D93030066940300E2
S31500006CF4034B1878012894BF00200120704700BF79
S31500006D048936002038B50446044D2878A04203D0BD
S31500006D142146FDF754FD2C7038BD00BF893600208E
S31500006D24054B1B7820B1012B04D80220FFF7EABFDC
S31500006D34012BFBD8704700BF8936002008B500F048
S31500006D4419F8BDE8084005F0CDB9000010B5084CA7
S31500006D54237853B9FFF7F2FF0123237028B1038880
S31500006D64B3F5817F24BF037D2370207810BD00BF57
S31500006D747B370020154B70B51B78012B25D805F001
S31500006D8499F9134D0246134901200DF0D9FC01204F
S31500006D94FFF7C6FF2E78FF2E17D105F0A3F998B199
S31500006DA444881822C4F3400431460B482C7030F052
S31500006DB440FA54B1FFF7CAFF042806D9BDE870406B
S31500006DC4CC21064800F074B9287070BD89360020BD
S31500006DD4E3210020F2940300AC3A0020049503005A
S31500006DE4FFF7C8BF2DE9F04F4FF0FF334FF000090E
S31500006DF487B01446039307468A46CDE904998DF86D
S31500006E041030FFF7B7FFFFF7A1FF624B06461A786B
S31500006E140193012A1AD1012818D9B7FBF0F300FB14
S31500006E2413739BB15C4D2A68511C03D02B7A13440F
S31500006E349F4239D0EA68531C03D02B7D13449F42EA
S31500006E4430D040F22D11554800F032F9019B1B78E1
S31500006E54012B09D1B7FBF6F306FB137323B14FF4E9
S31500006E64AB714E4800F024F9019B1B78012B11D11C
S31500006E74E219B2FBF6F306FB13265EB1921BA41BC2
S31500006E8403920AEB0401324604A830F0AEF9A4B228
S31500006E948DF81460002C4FD1039B01335FD14FF062
S31500006EA4000958E04FF001090C2303FB09530FFABC
S31500006EB489F2187A53001344A6EB00085FFA88F89F
S31500006EC44FEA830BA0450BF1040328BF5FFA84F84D
S31500006ED41844424651462844009330F086F90C2261
S31500006EE402FB09F905EB09010A7AA4EB08044244FA
S31500006EF4D2B2B242A4B20A72474446D10320FFF783
S31500006F0401FF009BB2B22B44194655F8090005F05F
S31500006F146BF981460220FFF7F5FE4FF0FF3205EBD1
S31500006F240B0145F80B20C1E90122B9F1000F12D17A
S31500006F34002CB4D0C24489E70320FFF7E3FE2246BF
S31500006F445146384605F050F981460220FFF7DAFE2D
S31500006F54B9F1000FA0D0484607B0BDE8F08F0E4A3D
S31500006F64136801330CD0D36801330BD101230C21F0
S31500006F7401FB032306AA12E9070083E807008EE74C
S31500006F840023F4E74FF00109E5E7002C7FF462AF34
S31500006F9485E700BFE3210020AC3A002004950300F6
S31500006FA438B5184B1B78012B28D1174CFFF7E2FE96
S31500006FB4236801330FD00320FFF7A4FE2568FFF7EB
S31500006FC4C5FE211D82B2284605F00EF905460220AB
S31500006FD4FFF798FE9DB9E36801330FD00320FFF74E
S31500006FE491FEE468FFF7B2FE084982B2204605F036
S31500006FF4FBF805460220FFF785FE05B9002528465D
S3150000700438BD00BFE3210020AC3A0020BC3A002082
S3150000701470B504460D461646FFF7ACFE0420FFF78E
S3150000702471FE32462946204605F0EDF80446022054
S31500007034FFF768FE204670BD70B504460D46FFF79F
S3150000704499FE0520FFF75EFE2946204605F0EAF87C
S3150000705406460220FFF756FE0E4B1A68501C09D04E
S31500007064944207D861198A423EBF4FF0FF32C3E902
S3150000707400229A60DA68511C0AD0A24208D32C4432
S31500007084A2423FBF4FF0FF320349DA60C1E9012251
S31500007094304670BDAC3A0020B83A002008B5FFF778
S315000070A469FEBDE8084005F0CCB842DE7047000032
S315000070B438B504460D4600F083FD03F062FE29460A
S315000070C4204610F093FA2B4622460549012009F082
S315000070D443FA29462046BDE83840FFF7E6BF00BF1D
S315000070E4759503006D4B2DE9F0415A686C4CA26509
S315000070F45A6AE2656B4AD2F800122166D2F8042273
S3150000710462669A6AA266DA6AE2661A6B22675A6B42
S315000071146267A26BDB6B12F0040FA367D4E90F530B
S3150000712418BF1D4618F0B0FB002285420346606571
S3150000713422655DD35C4A95425AD8AA696264E969B4
S31500007144A164B4F85810C1F30801062954D157496B
S315000071548A4251D356498A424ED211884DF642622A
S31500007164914249D140F201706268C4F89420A26841
S31500007174C4F898204F4A5049934238BF13460A46EA
S315000071848B423CD3D31AE3640023C4E91F33C4E916
S315000071942133C4E92333484E444FDFF814C1AE42C9
S315000071A433D8D4E91FC7D4E92165D4E923124FF0B3
S315000071B4000E013BDBB2FF2B42D1BEF1000F05D01E
S315000071C4C4E91FC7C4E92165C4E92312B4F85830D9
S315000071D4C3F30803052B57D03CD8032B47D0042B05
S315000071E458D040F60722013B4B2B98BF104640E08F
S315000071F400221D46C4E911224FF42060BAE71E6836
S31500007204B6F1CD3FBED10433BAE756F8042DBA42DF
S31500007214C5D36245C3D2D107C1D5002104EB010E03
S31500007224DEF87CE09645BAD004311829F6D10BB9BC
S31500007234052301E0013BDBB204EB8301CA67AEE739
S31500007244E0464FF0010EBC4637462E460D46114623
S315000072544246AEE70C2B1AD03B2B0CD0062BC0D1E2
S3150000726440F60423B0F5206F08BF184601E040F647
S315000072740120BDE8F081114B9B6913F0020F40F227
S31500007284025318BF1846F4E740F60320F1E740F628
S315000072940520EEE740F60220EBE700BF00ED00E034
S315000072A40000002000E100E0E01700204C4300004D
S315000072B4A07203009C000020001800200080014AF0
S315000072C4012805D030B106280CBF022003207047E0
S315000072D4002070470120704708B5FFF7F1FF032827
S315000072E40FD03021084A12F8303002EBC00259435D
S315000072F4064B50685B5823FA00F0C04300F00100C7
S3150000730408BD0020FCE700BF8895030014C00340B5
S3150000731410B503F069FF044603F05EFF0022012165
S3150000732401FA02F3234014D01B4B33F812301B4AE4
S31500007334062B13D040F207218B420DD11849194868
S315000073440C68844208D14CF23C334B800B88138082
S3150000735412E00132102AE3D1104AF8E74FF20F0186
S315000073640F4B5888884214D11988B1F5406F10D252
S3150000737411804CF23C325A80084B1A8840F2017351
S315000073849A4201BF084B094AD2E90001C3E9000148
S3150000739410BD4FF4C061EBE7A0950300AA330020AB
S315000073A40000002007020FF0BC2E002094000020ED
S315000073B4014B1888000A7047AA330020014B18882D
S315000073C4704700BFAA3300202DE9F04F4D4C054607
S315000073D4A36BD4F850B05A0747BF0027B846D4F871
S315000073E44CB0D4F85480D4F840A05DBF464FD4F8CE
S315000073F43CA0DFF83C91DFF83C9113F0080F434BB7
S31500007404434A18BF1A46B7EB08061FBF6421730820
S3150000741401FB0B33B3FBF6F387B01CBF9BB205939A
S315000074243C494B46CDE9017ACDF8008008BF059664
S3150000743401F04AF9B3B2CDE900931FFA8BF2059B2A
S315000074443549284601F040F9A36B5B070AD49C3EF4
S315000074545E4507D1626D314B9A4203D230492846C4
S3150000746401F032F9BA4501D8C24504D24A462D493B
S31500007474284601F029F9284609F068F8236E0BB965
S31500007484636EBBB32849284601F009F90026012793
S31500007494DFF8A480DFF8A490226E07FA06F31342FD
S315000074A407D058F8262013781BB14946284601F020
S315000074B4F6F80136202EEFD100260127DFF8788072
S315000074C4DFF87890626E07FA06F3134209D008EBE8
S315000074D48603D3F8802013781BB14946284601F069
S315000074E4DEF801361D2EEDD1284607B0BDE8F04F73
S315000074F401F0E4B828460D4907B0BDE8F04F01F0A5
S31500007504E3B800BF0000002000180020A79803007D
S31500007514AE980300B6980300E49803009C0000208C
S315000075241D9903004999030067990300969903007E
S31500007534A29803003CCB0300AC9903004CAA0300B9
S315000075442DE9F8430446FFF739FF40F60123984234
S3150000755439D010D840F2025398421DD040F201733C
S31500007564984224D040F20153984213D165492046EB
S3150000757401F0AAF822E040F6032398426CD03DD3EA
S3150000758440F60423984200F09C8040F60523984276
S3150000759400F0B580BDE8F8835B49204601F094F815
S315000075A45A4B5B495A6C204601F08EF806E0574A5E
S315000075B45849D2E92523204601F086F82046BDE83D
S315000075C4F84308F0C3BF514D5349204601F07CF8F7
S315000075D495F86C309F0703D55049204601F074F89E
S315000075E495F86F305E0603D54D49204601F06CF8D8
S315000075F495F96F30002BE1DA4A49B8E7434D4A4919
S31500007604204601F061F895F86830980704D06A6C52
S315000076143F49204601F058F895F96830002B04DA02
S315000076246A6F4249204601F04FF800260127DFF829
S315000076340881DFF81491AA6E07FA06F3134207D0FD
S3150000764458F8262013781BB14946204601F03CF829
S315000076540136082EEFD1B1E72C4D3549204601F00D
S3150000766433F82B496A6C204601F02EF895F86930F8
S31500007674590703D52F49204601F026F895F96930B4
S31500007684002B04DA6A6F2949204601F01DF8082602
S31500007694294FDFF8B480AB6EF340DA0707D557F805
S315000076A4262013781BB14146204601F00DF8013619
S315000076B4102EF0D195F86830002B7FF47FAF1F4968
S315000076C455E7124D1E49204600F0FEFF6A6C10492C
S315000076D4204600F0F9FF1026174FDFF86C80AB6EDA
S315000076E4F340DB0707D557F8262013781BB141462C
S315000076F4204600F0E9FF01361A2EF0D15EE7114963
S315000077044BE700BF319603006E960300000000208D
S315000077149E960300B7960300D1960300E9960300EC
S31500007724239703005697030092970300B797030025
S31500007734DB970300F2970300C09503003898030013
S315000077446898030081980300D39703002DE9F84F46
S3150000775406460025154C164FDFF85C80DFF85CA062
S3150000776423785FFA85FB0BB9BDE8F88F57F8043B1D
S3150000777422461049304600F092FF227804F10109AE
S3150000778482B9627882B10BF0030103290CBF41462A
S315000077945146304600F083FF304608F0D7FE0135E7
S315000077A44C46DDE74C46E8E74146F2E7A09A03007B
S315000077B40400002028960300E2720300E4D00300CC
S315000077C400F00CB800F00AB800F008B800F006B8EB
S315000077D400F004B800F002B800F000B872B61EF06B
S315000077E4080F09D01EF0040F0DD0DFF850E0AEE804
S315000077F4FF1F6FF002000CE0DFF840E0AEE8FF1F69
S315000078046FF00E0005E0DFF834E0AEE8FF1F6FF01E
S3150000781406006946EFF309828EE8070086460848A3
S31500007824084C854501D3A54501D384F30888FFF7A1
S3150000783459FC84F3088818F003F8000004000020BB
S31500007844E00E002000180020FFF7C6BF73B5002421
S31500007854094B02AD094E45F8043D605D012306EB74
S31500007864C0010422496816F83000013403F08AFB8B
S31500007874042CF2D102B070BD00010203B4A10300CE
S31500007884084A12F8301002EBC002536801229A40EB
S3150000789430234B4342F2100103F1804303F5703366
S315000078A45A507047B4A10300084A12F8301002EB8C
S315000078B4C002536801229A4030234B4341F210011F
S315000078C403F1804303F570335A507047B4A10300A3
S315000078D4084A12F8301002EBC002536801229A409B
S315000078E430234B4343F2100103F1804303F5703315
S315000078F45A507047B4A1030010B10020FFF7C0BF6F
S31500007904FFF7D2BF00F07E63B3F17E6F70B5054614
S315000079140E46144616D105F0A9FB18B19A210D4856
S31500007924FFF7C6FB22463146C5F30B0003F018FDEC
S31500007934044605F0A9FB5CB19D21BDE870400548ED
S31500007944FFF7B6BB520817F01BFF08B18F21F4E707
S3150000795470BD00BFE2A1030037B57F2A14BF1546E8
S3150000796400254BF234629142044619D17F2241F23A
S31500007974020168460823FFF7EFFF082226496846F6
S315000079842FF024FC30B908237F2241F2F011684617
S31500007994FFF7E2FF6B4603CB2060616003B030BDA6
S315000079A441F2F012914219D11C4901388A6CC96C12
S315000079B41D1F002BF2D0013B9D4200F8012F4FEA18
S315000079C41222F6D1002203349A42E7D00132042A65
S315000079D404F8011F4FEA1121F6D1DFE701F47042E2
S315000079E4B2F5805F0BD11A46C1F30B0404F17E6431
S315000079F403FB054103B0BDE830402FF0F6BB01F4AC
S31500007A046042B2F5005FC9D1C1F30B0404491A46BA
S31500007A14214403FB0511EDE75CA203000080E00F9F
S31500007A2400E00B0070B5054616461C46DBB14BF26A
S31500007A343463994210D1082C28BF08247F2241F2CE
S31500007A4402012346FFF788FF2246074928462FF0FE
S31500007A54BDFB40B941F2F011234632462846BDE843
S31500007A647040FFF779BF70BD5CA203002DE9F743B0
S31500007A740446E0070F46154603D5DD213448FFF7D3
S31500007A8417FBE90703D5DE213148FFF711FB04F4A0
S31500007A947043B3F5805F3ED1C4F30B0404F17E64F6
S31500007AA46B1E2C4A23449342264603D9E3212848D5
S31500007AB4FFF7FEFADFF8989006EB050846453DD138
S31500007AC4A2070ED04FF6FF7337F8022B02A943EA3A
S31500007AD40243A01E41F8043D0422FFF713FF0234BB
S31500007AE4023DAB070ED0023D25F00103FB5A02A965
S31500007AF46FEA03436FEA1343042241F8043D601915
S31500007B04FFF700FF25B12A4639462046FFF7FAFE5D
S31500007B1403B0BDE8F08304F46043B3F5005F05D118
S31500007B240D4BC4F30B041C442646C3E7EA2108485C
S31500007B34FFF7BEFA6FF00F060024BBE716F8013B09
S31500007B44FF2BBBD0F4214846FFF7B2FAB6E700BFD5
S31500007B54E2A10300FF1FE00F00E00B00FFF730BEB9
S31500007B641FB5144A01AB10685168128903C31A8001
S31500007B7401238DF804300D238DF80A3003230E4CAF
S31500007B84082124208DF80B3002F04AFF01A9204673
S31500007B9403F05BFE4FF40061022342F21800074A29
S31500007BA4C2F884112350516041F21C02A35004B060
S31500007BB410BD00BF64A203000080014A00E100E09A
S31500007BC4014803F031BE00BF0080014AA52803D155
S31500007BD40021024803F019BE704700BF0080014A25
S31500007BE4024B586800F00100704700BF0080014A4C
S31500007BF4024A536A002BFCD1704700BF0080014A39
S31500007C0400207047002070477047000007B572B621
S31500007C1403F0B7F88C4B8D495B6940228B600023D7
S31500007C240B764B768B76F023CB760B774B778B776D
S31500007C34CA77802281F8202081F82130E023602051
S31500007C4481F82230824B81F8232083F8002383F8BD
S31500007C54012383F8022383F8032383F8042383F898
S31500007C64052383F8062383F8072383F8082383F878
S31500007C74092383F80A2383F80B2383F80C2383F858
S31500007C840D2383F80E2383F80F2383F8102383F838
S31500007C94112383F8122383F8132383F8142383F818
S31500007CA4152383F8162383F8172383F8182383F8F8
S31500007CB4192383F81A2383F81B2383F81C2383F8D8
S31500007CC41D2383F81E2383F81F2383F8202383F8B8
S31500007CD42103202083F8222383F8232383F82423F3
S31500007CE483F8252383F8262383F8272383F8282378
S31500007CF483F8292383F82A2383F82B0383F82C0398
S31500007D0483F82D2383F82E2383F82F2383F8302337
S31500007D1483F8312383F8322383F8332383F8342317
S31500007D2483F8352383F8362383F8372383F83823F7
S31500007D3483F8392383F83A2383F83B2383F83C23D7
S31500007D44CB6823F4E0631B041B0C43F0BF6343F4CA
S31500007D540133CB604B6943F010034B614FF4E023CE
S31500007D644B6204F069FBFFF7D3FAEFF308834FF095
S31500007D74CD31384A043B934263D2374A002192B24A
S31500007D8436482FF056FA62B6684603F011FB344BB8
S31500007D949B6DDB0318D4334A136823F4FF0323F4DF
S31500007DA4FE4343F4BC1343F4A063136052F8043C4B
S31500007DB423F4704343F4404342F8043C52F8043C31
S31500007DC443F4E06342F8043C9DF80130012B0FD1E3
S31500007DD49DF8003063B94FF000531B68224B1B68B3
S31500007DE4224B1B68224B1B68224B1B68224B1B68C9
S31500007DF4224AD2F8803043F00303C2F8803004F0FC
S31500007E046EFE02224FF040231A6704F091FA01F045
S31500007E14A9FB002300938DF80430012368468DF8EE
S31500007E24033003F04BF800F0EFF817F05BFD04F0B5
S31500007E3459FE00F0F9F812480FF066FC03B05DF83D
S31500007E4404FB1960043B96E70040000000ED00E0E7
S31500007E5400E100E0A00E0020D00D0000A0000020EC
S31500007E6400C0004034C000400040002000800020D4
S31500007E7400C00020000001200040012000800040D6
S31500007E8448E8030040F2016017F0DABCFEF78CBB49
S31500007E9408B500210B20FEF785FBBDE80840FEF778
S31500007EA484BB08B1FCF7C5BCFCF7C2BC032000F0D8
S31500007EB49FBA000008B5FFF77BFA044B0B289ABF5C
S31500007EC400B203EB8000184608BD00BFB6A303004A
S31500007ED408B5FFF773FA044BC0F30F2253F82230A8
S31500007EE4C0B203EB800008BD80A3030010B5FFF702
S31500007EF45FFA0446FFF762FAC0B228B9012C24D10E
S31500007F0464F07F04E4B216E0072CF9D801A353F811
S31500007F1424F000BF3B7F0000057F0000397F00008E
S31500007F243F7F00003F7F0000437F0000477F000043
S31500007F344B7F00000924204610BD0224FBE70324DE
S31500007F44F9E70B24F7E70624F5E70446F3E700BF51
S31500007F5438B50D46044688BB284B4A1E1860504265
S31500007F645041013D08F05EFD032D46D8DFE805F0DB
S31500007F7402131E2001210846FCF75CFCFFF730FEC5
S31500007F841F4B187010B1A520FFF720FEBDE838403E
S31500007F94012008F047BD02210120FCF74BFCFFF746
S31500007FA41FFE50B3BDE83840FFF722BE0421F3E7B5
S31500007FB405210120BDE83840FCF73CBC104B1B787A
S31500007FC41BB101210F4803F020FC631E584258419F
S31500007FD4013C08F051FD032C0FD8DFE804F0020839
S31500007FE40A0C012008F048FD01210020E2E70221E5
S31500007FF4FBE70421F9E70521F7E738BDD83100206E
S315000080047A3700200080014A42F22041044AD2F81D
S3150000801420341B0C1B045350024A1360704700BFE4
S3150000802400C00340542C002008B504F0B9FA18B176
S315000080348C210448FFF73CF8BDE808400249034890
S3150000804404F05EBBE6A303006C1D0020942C002004
S31500008054134A1449D2F82434D2F820241340124A7D
S315000080649BB21360D1F80001400102D508684001B3
S3150000807406D4D1F80001800105D50968880102D526
S3150000808443F480331360074BD3F80011490506D532
S315000080941B685B0542BF136843F4003313607047E3
S315000080A400C0034000E100E0D8310020012810B5EB
S315000080B40AD0831E012B1CD904281CD0052801D103
S315000080C402F0E4FE002400E0044620460B4A0121A7
S315000080D404F096FA02F04AFE02F057FE04F036FB6C
S315000080E402F046FE2046BDE81040044A002104F092
S315000080F487BA0224E9E70324E7E700BF62A4030082
S31500008104FFF7D4BF2DE9F04F89B00FF0F1FA074617
S31500008114002840F0DC806F4E6F4D3168286816F0F9
S315000081242DFD0446002827D033683C46D3E90001D8
S315000081349A6912689047336804A89B699B689847B4
S31500008144336802209B69DB68984732680598536850
S31500008154E7B2B3FBF0F3BB42916904F1010442D8E0
S31500008164CB680020984733689B695B6898473168F9
S31500008174286816F003FD04460026DFF88891002CD3
S3150000818453D1564B4FEA8608F35C002B31D1A246F5
S31500008194534BF35C0193534B03EB080B019B5FFAC0
S315000081A48AF7BB42286853D84F4BF35C002B3CD06C
S315000081B44C4B019F9844FBB27E2B286835D8D8F8DF
S315000081C4003003AA07EB030A514602AB16F018FF68
S315000081D448452AD05146286816F058FF0137044608
S315000081E40028E8D021E012680B6907FB00209847B5
S315000081F4ABE73C4B03AA53F82670286802AB394612
S3150000820416F0FEFE484507D078B9039B012B0CD027
S315000082143946286816F03AFF344B394653F8083085
S3150000822428681A6816F016FE04460136252EA6D1CD
S31500008234B4FA84F32E4A5B0913702E4B9C4240D049
S315000082442DD8002C32D0013B9C423ED0C5242DE0D3
S31500008254DBF8003003AA1F44394602AB16F0D0FE01
S3150000826448450AD010B10AF1010A97E7039B8BB976
S31500008274214B029AF35C9A42F5D01F4B1B4A9B5D35
S3150000828452F808203946286816F04AFD0028EAD034
S31500008294044689E73946286816F0F8FEEDE7174BD9
S315000082A49C4210D004339C42D0D1C1242B681B7C41
S315000082B41BB1D3211248FEF7FBFE204609B0BDE8E8
S315000082C4F08FC324F2E7C424F0E7C224EEE7C62401
S315000082D4F3E700BFEC1D0020E81D00202C7C030002
S315000082E4707B0300787C0300517C0300987B0300B9
S315000082F46F37002002E000F00C7D030004E000F07C
S315000083046CA403000BE000F0242970B506460C4665
S3150000831415461AD8144A127822B3144A1068144A15
S3150000832452F82110134A125D3AB1324616F0E0FDB6
S31500008334C0B1BDE87040FCF74CBE7F2D08BF0025D8
S315000083443246294416F038FDF2E7FF2903D9BDE881
S315000083547040FFF767BB40F20111BDE87040064864
S31500008364FEF7A6BE70BD00BF6F370020E81D0020D3
S31500008374787C03002C7C03006CA403002428F8B545
S3150000838404460D46164619D81449097829B31449E2
S31500008394144F0868144951F824103C5D3CB1126826
S315000083A416F058FDC8B1BDE8F840FCF712BE7F2DA3
S315000083B408BF0025294416F0B3FCF3E7FF2805D9C6
S315000083C41A463146BDE8F840FFF750BB4FF49A71A0
S315000083D4BDE8F8400548FEF76BBEF8BD6F370020D0
S315000083E4E81D00202C7C0300787C03006CA40300A9
S315000083F408B5084B1B7863B1074B002253F82010CD
S31500008404064B186816F0B4FD18B1BDE80840FCF731
S31500008414E0BD08BD6F370020787C0300E81D00200E
S3150000842470B5164685180AB9304470BD01F00F03BD
S315000084340A2B34BF30243724013A2344090905F8AA
S31500008444013DD2B2EFE70000F0B5F9B100281CDA1D
S315000084542D23B0F1004F137000D04042012115E0E6
S31500008464801B8642ECB205F10105F9D904B927B19E
S3150000847401274D1C30345454E9B20133092B09D178
S31500008484303050540131C8B2F0BD002100231F46DC
S31500008494DFF808C05CF823600025E2E7E4A40300E3
S315000084A42DE9F04F4FF0000B95B002AC81468A4699
S315000084B417461D465E46A0463B7863B902ABE41AEE
S315000084C4E4B2224619465046C847002840F0938035
S315000084D43444E0B290E0252B13D0BBF1000F14D145
S315000084E42370013412AB9C426DD3A4EB0804E4B2AE
S315000084F4224641465046C84700287CD12644F6B257
S3150000850460E0BBF1000F00D101373B78632B00F02C
S3150000851492801BD8392B09D8302B80F09E80002BF3
S31500008524CCD0252B51D04FF0000BDBE7582B00F0B5
S315000085348B80622BF7D14FF0000B2B6801936B688D
S315000085440093009B9B4543D10835ECE7702B1ED066
S3150000855417D8642B01D06C2BE5D16C2B05F1040BD9
S3150000856428686CD17B78752B14BF0121002101D0BA
S31500008574642B00D101372246FFF766FF04445D46AB
S31500008584D1E7752BE9D0782B5ED0732BCBD1A4EB36
S315000085940804E4B2224602A9504605F1040B2D68EC
S315000085A4C84740BB2644F6B2C4B22B5D0130002B4B
S315000085B4FAD1224629465046C847E0B95D46834665
S315000085C42644F6B24446013776E723700134AAE717
S315000085D4019B204613F80B100222FFF721FF12AB72
S315000085E4984204460ED3A0EB0804E4B22246414660
S315000085F45046C84718B1002015B0BDE8F08F264490
S315000086044446F6B2009B013B5B4582BF20232370A0
S31500008614013412AB9C420BD3A4EB0804E4B2224609
S3150000862441465046C8470028E5D126444446F6B29A
S315000086340BF1010B85E72B6804352370C6E7752B10
S315000086440CBF0021012196E7204602222978FFF774
S31500008654E7FE05F1040B044691E77A7802F0DF029F
S31500008664582A19D1322B07F1010B09D104222046CD
S3150000867429882F1DFFF7D4FE3D4604465F4652E780
S31500008684342B09D12F1D2D680422290C2046FFF70F
S31500008694C7FE0422A9B2EDE74FF0010B22E70EB4A0
S315000086A403B503AA52F8041B019208F087FAC0B274
S315000086B402B05DF804EB03B0704700000149FFF710
S315000086C4EEBF00BFE27203000EB433B505AA52F83A
S315000086D4041B0546019208F071FA04462846FFF782
S315000086E4EDFFE0B202B0BDE8304003B0704708B514
S315000086F408F064FAC0B208BD2DE9F04F9B46584B0A
S3150000870485B01B78064689461546109F9DF844A0F9
S31500008714DDF85080002B00F09280072A00F2918049
S315000087240E9B002B00F08D800F9B002B00F08980A0
S31500008734129BB3F5006F00F38480012801D1002F4A
S315000087447FD0484B03EB05131B7B002B7BD0464C99
S315000087541022002168462EF06CFD04EB451410220D
S31500008764B9F1000F5CD1494620462EF062FDA3788C
S3150000877443F01003A370E37843F03003E370BAF1D7
S31500008784000F03D1DBB243F00303E37036496A01F9
S31500008794129B885A013B63F30E100E9B01EB020CED
S315000087A48852CCF808300F9B9DF84C10CCF8043056
S315000087B49CF80330012E61F38303CDF800B08CF8E6
S315000087C4033042D113230CF1100ECCF80C309CE884
S315000087D40F008EE80F006FF00301DCF81C20B9F1DE
S315000087E4010F61F39F02CCF81C20CCF8147004D15D
S315000087F40F9BCCF80470CCF81830002719492A01CD
S315000088048B1841F80280159A28465A609F605E7359
S315000088142246694602F046FC384605B0BDE8F08FAC
S31500008824002120462EF005FD1023A3700323E370D8
S31500008834BAF1000FAAD1DBB243F03003A5E70B4827
S31500008844EBE70B48E9E70B48E7E7B8F1000FD4D1AB
S315000088549CF8023068F304138CF80230CDE700BFAD
S31500008864DB36002014240020542B0020028000F064
S31500008874018000F0078000F038B5104B05461B78E0
S31500008884BBB1C0B102F085FA00230D4901EB031216
S31500008894147B3CB92B6001231460137302F07FFA36
S315000088A4204638BD0133082BF0D102F078FA05488A
S315000088B4F7E70548F5E70548F3E700BFDB36002090
S315000088C414240020048000F0028000F0018000F0EF
S315000088D438B502F05EFA002305460A4AD1180C7B25
S315000088E45CB91033802BF9D102F08EFB064B284677
S315000088F41C7002F054FA204638BD284602F04FFA9E
S315000089040248F9E714240020DB360020058000F035
S315000089140D4B10B51B78044693B1072812D802F004
S3150000892438FA0A4B03EB04131A7B2AB100241C738E
S3150000893402F035FA204610BD02F031FA0448FAE78F
S315000089440448F8E70448F6E7DB3600201424002040
S31500008954068000F0028000F0018000F0164B13B58B
S315000089641868002301908DF8043002F012FA134BB4
S315000089741C7824B102F013FA114802B010BD01228A
S315000089841A7002F00CFA0F4B1C731C7783F82C40F8
S3150000899483F83C4083F84C4083F85C4083F86C4091
S315000089A483F87C4004230DEB03008DF8073002F0B6
S315000089B44FFB2046E1E700BF08A50300DB36002095
S315000089C4038000F01424002010B588B00E9C009299
S315000089D407940D9C024606949DF8304005940B9C22
S315000089E404949DF8284003940024CDE901342046DC
S315000089F40B462146FFF780FE08B010BD10B588B0BF
S31500008A040E9C009207940D9C024606949DF83040F5
S31500008A1405940B9C04949DF8284003940024CDE906
S31500008A24013420460B460121FFF766FE08B010BD4F
S31500008A3408B50A4B1B785BB107280BD8084B03EB28
S31500008A4400131B7B43B1002102F0F2FA002008BD9B
S31500008A540448FCE70448FAE70448F8E7DB36002054
S31500008A6414240020028000F0018000F0078000F04A
S31500008A7408B50A4B1B785BB107280BD8084B03EBE8
S31500008A8400131B7B43B1012102F0D2FA002008BD7A
S31500008A940448FCE70448FAE70448F8E7DB36002014
S31500008AA414240020028000F0018000F0078000F00A
S31500008AB408B50A4B1B7853B107280AD8084B03EBB1
S31500008AC400131B7B3BB102F03DFB002008BD0548AB
S31500008AD4FCE70548FAE70548F8E700BFDB3600205F
S31500008AE414240020028000F0018000F0078000F0CA
S31500008AF40D4B1B7893B1072812D889B10B4B03EBA6
S31500008B0400131B7B73B10A4BDA6A012303FA00F0E4
S31500008B1410401ABF00200B70087070470548704754
S31500008B240548704705487047DB36002014240020AA
S31500008B3400000440028000F0018000F0078000F08D
S31500008B440B4B10B51B780C4663B107280CD859B1EA
S31500008B54084B03EB00131B7B43B102F005FB2060BB
S31500008B64002010BD0448FCE70448FAE70448F8E787
S31500008B74DB36002014240020028000F0018000F07F
S31500008B84078000F02DE9F843174B1F6D5B6D1F40FE
S31500008B9400D5FEE701260025144CDFF85480DFF8E3
S31500008BA45490374217D02368C8F800609BB1A16877
S31500008BB462680131A16028469847637B012B0AD17C
S31500008BC448B909EB4513197B1A7F60F3410160F339
S31500008BD4410219731A770135082D4FEA460604F146
S31500008BE41004DED1BDE8F8830000044014240020FC
S31500008BF450200440542B002070B504460125084E2D
S31500008C0404B970BD94FAA4F0B0FA80F005FA00F342
S31500008C1424EA030456F82030002BF1D09847EFE7F6
S31500008C24A02C00204FF00072044BC3F880211A6078
S31500008C344FF08062C3F880211A60704700E100E0BB
S31500008C4438B504460D4602F0A4F8034B43F8245005
S31500008C54BDE8384002F0A3B8A02C0020084BD3F896
S31500008C642404D3F82024104042F2204220F42A504F
S31500008C7420F02A004004400C9850FFF7BDBF00BF07
S31500008C8400C00340084BD3F82404D3F82024104032
S31500008C9442F2204220F4AA4020F055000004000CC1
S31500008CA49850FFF7A9BF00BF00C00340104A30B573
S31500008CB4136841611546ABB91060836011E0091B66
S31500008CC49C6841611A467CB123465C698C42F6D99C
S31500008CD4002CF4D052B19060836013B15A69511AD2
S31500008CE4596130BD0022F0E72346F4E72860F3E734
S31500008CF48031002010B500F045FB094B094A19687C
S31500008D0431B11368C41A4B69A34203D31B1B4B61CD
S31500008D14106003E0C01A002310604B6110BD00BF51
S31500008D2480310020D42D002038B50F4D02202B6849
S31500008D345C690E4B1B681C4400F058FB204600F08F
S31500008D4429FB00230A492A680B70D088800702D5BC
S31500008D5401230B7038BD9268002AFBD05069034486
S31500008D64012BF2D9F6E700BF80310020D42D002074
S31500008D740237002070B59DF814501646057100257B
S31500008D84049A8560BDF818500446C5800260C0E99F
S31500008D9403360D4629B961610BB11146984796B160
S31500008DA4354601F0F6FF0646FFF7A4FF294620469E
S31500008DB4FFF77CFF054B1B68A34201D1FFF7B4FF05
S31500008DC4304601F0ECFF002070BD00BF803100206A
S31500008DD400210C4A13687BB183420AD1836879B1B6
S31500008DE48B6083681BB15A6941690A445A61002041
S31500008DF4704719469B68EEE70028EFD002207047BB
S31500008E041360EEE78031002070B501F0C2FF144E06
S31500008E1405463478FCB9134B1C60134B1C60134B8A
S31500008E241C8000F075FA012000F0E0FA00F02CFB3B
S31500008E340F4B0246186020B9284601F0B0FF2320E4
S31500008E4470BD23460B4840F2E7312DF0FDFF0A4B77
S31500008E54186001233370284601F0A1FF0020EFE7D4
S31500008E64E236002080310020D42D0020A4330020D7
S31500008E747C31002018FCFFFFDC2D00202DE9F04199
S31500008E840546F8B101F085FF0F4F0646FFF732FF9E
S31500008E942846D7F80080FFF79BFF044628B13046E2
S31500008EA401F07DFF2046BDE8F081A8453B6803D16B
S31500008EB423B1FFF739FFF2E7002BF0D1022000F0CF
S31500008EC4A1FAECE72224EDE780310020F0B50D4647
S31500008ED485B016461F46044680B1FFF7CFFFBDF89E
S31500008EE42C30002202939DF828302946CDE90073E0
S31500008EF420463346FFF73EFF05B0F0BD2220FBE7D0
S31500008F0438B50C46054698B191B100230B7001F0B3
S31500008F1440FF0121074B1B680BB122781AB101F0FF
S31500008F243EFF002038BD9D420CBF21709B68F3E7CD
S31500008F342220F7E780310020F0B51F46002387B0D2
S31500008F440D4616468DF817300446A0B10DF11701EB
S31500008F54FFF7D6FF9DF817207AB9BDF834302946B5
S31500008F6402939DF830302046CDE900733346FFF76F
S31500008F7401FF07B0F0BD2220FBE70320F9E7F0B5B7
S31500008F841F46002387B00D4616468DF81730044653
S31500008F94A8B10DF11701FFF7B3FF9DF8173083B998
S31500008FA4BDF834302A4602939DF830302946CDE97F
S31500008FB4007320463346FFF7DDFE07B0F0BD2220DE
S31500008FC4FBE70220F9E70000F8B50C460646C8B1EF
S31500008FD4C1B101F0DEFE0546FFF78CFE736923601E
S31500008FE4134B1B68B3420FD023B9284601F0D7FEB2
S31500008FF403201CE0596922689B680A442260F1E751
S3150000900400230FE0222012E0276800F0BBF9094E86
S315000090143368C01A8742F3D900F0B4F93368C01A2A
S3150000902423681B1A2846236001F0B9FE0020F8BD08
S3150000903480310020D42D0020F8B507460E4601F0F5
S31500009044A8FE00240546114B1B6823B9284601F0E7
S31500009054A6FE1B2015E05A691444DA88BA4213D1D5
S3150000906400F090F90A4F3B68C01AA0420AD200F0F9
S3150000907489F93B68C01A201A3060284601F08FFE31
S315000090840020F8BD0020F7E79B68DEE7803100206A
S31500009094D42D0020014B1878704700BF02370020FA
S315000090A438B501F076FE054600F06CF9044628460C
S315000090B401F075FE204638BD70B501F06AFE06461D
S315000090C400F060F9094B05461C880120A4B200F0A3
S315000090D4B1F918B100F056F905460134304601F0ED
S315000090E45EFE0022214642EA050070BDA43300203C
S315000090F4014B1868704700BF7C3100200A4B10B53D
S315000091041B680C4683420CD3084B4FF47A721968D9
S315000091140023A0FB01012DF097FE01302060002002
S3150000912410BD2120FCE700BFDC2D00207C3100208F
S31500009134104B10B51A684FF47A73A0FB0301A2B161
S31500009144531E134211D1B2FA82F2C2F11F02C2F1C6
S315000091542004A2F1200301FA04F420FA02F22243C5
S3150000916421FA03F342EA030010BD00232DF06CFE3E
S31500009174FAE700BF7C31002000000000F8B516466F
S315000091841BA3D3E900238B4208BF82422AD3174B81
S315000091941A684FF47A73A0FB034503FB0155C2B169
S315000091A4531E13EA020014D1B2FA82F2C2F11F026C
S315000091B4C2F12007A2F1200124FA02F305FA07F707
S315000091C43B4325FA01F10B4325FA02F2C6E90032C4
S315000091D4F8BD0023204629462DF036FEC6E90001D7
S315000091E40020F5E72120F3E7AFF300807C3100206F
S315000091F4EFA7C64B37894100C2072DE9F84F04464D
S315000092040BD53F4A138801339BB21380FFF772FDD7
S315000092143C4B1B680BB1FFF787FDA3076DD500F028
S31500009224B1F8394F00263D688046451B01F0B1FD73
S31500009234B24683463246334B1C6814B16369AB426B
S3150000924414D9012E314B51D1D288022A4ED11E7027
S31500009254002C4ED06369C7F800805D1B6561FFF77B
S3150000926463FD5846BDE8F84F01F099BD23462A46EA
S31500009274C7F800805969914209D8187994F804C04E
S31500009284521A844588BF1C469B68002BF2D1584667
S3150000929401F085FDD4F814B0C4F814A001F079FDEA
S315000092A481462046FFF794FD484601F078FD236980
S315000092B44BB101F06EFD814621692046FFF7F6FCAD
S315000092C4484601F06CFDE36813B1216820469847CF
S315000092D400F058F8D844A5EB08058146054401F08A
S315000092E458FD013683462246C846A4E700221A7072
S315000092F4AEE7022000F086F8B3E7BDE8F88F00BFBA
S31500009304A433002080310020D42D00205E370020B5
S315000093141FB50024184B18689A88029053F8060F54
S31500009324ADF80C201B79009002A88DF804308DF856
S3150000933408408DF80C4001F0A1FF694601208DF824
S31500009344004001F05FFF4FF090431F219A6922F01D
S315000093541F029A61094A11609A6A12F00802FBD147
S315000093641A62012001F068FF4FF48062044BC3F8CF
S3150000937480211A6004B010BD0CA503001420004817
S3150000938400E100E04FF090439A6A1207FCD4186A91
S31500009394704700004FF09042936A1907FCD4136A91
S315000093A4116C5269120704D4CA1A022A01D89942C6
S315000093B40ED1C21A012A98BF981CB0F1FF3F28BFEC
S315000093C401304FF0904318649A6942F008029A619A
S315000093D4054A13783BB14FF09041CB6B43F002033F
S315000093E4CB630023137070478D21002082074FF052
S315000093F4904200F00103916948BF43F008030B4310
S3150000940493617047830700F001020AD50121084BD6
S3150000941442F0080219704FF09041CB6B23F003031E
S31500009424CB634FF090418B6923EA02038B6170474B
S315000094348D2100204FF0904301285B6904D0022857
S3150000944405D1C3F3C000704703F001007047002044
S315000094547047000010B501F09CFC4FF090430446A1
S315000094645B691A07074A03F0010003F00D0348BFBE
S3150000947440F002001360FFF7BFFE2046BDE810402F
S3150000948401F08DBC142000481C2001F08BB90000AB
S31500009494002211462D48F0B503682D4D54592CB1C0
S315000094A41E68AC18002E3DD1234601210832282A15
S315000094B4F4D101B10360002214462649264E0B68F6
S315000094C495592DB11F68B518002F32D12B460124AA
S315000094D40832282AF4D104B10B6000680368002B13
S315000094E42FD04FF04022936F007923F0FF7323F4BB
S315000094F4803343EA00439367184B4FF000420968F0
S315000095041A600B68FBB14FF04022936F097923F47C
S31500009514FF7323F001030B439367104B4FF0804214
S315000095241A60F0BD1E792779B74284BF234601210C
S31500009534BCE71F7995F804C0BC453CBF2B46012403
S31500009544C6E7074BD9E7064BE8E700BFBC2D00206A
S315000095542C310020D82D00205431002068500040C2
S315000095646860004010B5012228240F4B00211A70B0
S315000095740E4822462DF05DFE224600210C482DF0B1
S3150000958458FE0C4B0C4A13600C4A13604FF04043D0
S315000095940B4A1360536020220A4BC3F880211A60D9
S315000095A4FFF776FF002010BDCB3500202C310020BC
S315000095B4543100203C2E0020BC2D0020D82D002044
S315000095C46460004000E100E04FF04022D2F88800D9
S315000095D4D2F88830C0F38800C3F388039842F5D1E3
S315000095E46FF48873184440B2704700004FF040226D
S315000095F4936E526E10B5134013F0804211D0114B86
S315000096041B681C682CB1002119605960FFF7DCFF48
S31500009614A0474FF080420C4B1A60BDE81040FFF79C
S3150000962437BF002BF9DA094B1B681C682CB11A608A
S315000096345A60FFF7C9FF0121A047034B4FF00042D0
S31500009644EAE700BFD82D002064600040BC2D00204E
