:1040000000180020C1000200317500003575000065
:10401000A70A0A010042000004180FAC0069B200B0
:104020000000000000000000000000000000000090
:104030000000000080B80300000000000000000045
:104040000000000000000000FFFFFFFFFFFFFFFF78
:10405000FFFFFFFF00600B000100000000000000F8
:10406000FFFFFFFFFFFFFFFF8000000000000000D8
:104070000000000000000000000000000000000040
:104080000000000000000000644E0020644E00208C
:1040900000180020F228040010810300A00E002068
:0C40A000700E002000E00B00000000008B
:1042000000180020C1000200317500003575000063
:10421000C5C200003975000041750000BF000200F2
:10422000BF000200BF000200BF000200BF0002008A
:1042300045750000BF000200BF000200BF00020081
:10424000B8750000B8750000B8750000B8750000BA
:10425000B8750000C593000081A20000B875000089
:10426000B8750000B8750000C9910000F511010093
:10427000B8750000B8750000B8750000B87500008A
:10428000B8750000B8750000B8750000BF000200E6
:10429000B8750000FD880000B8750000B875000012
:1042A000B8750000FD890000D5890000B8750000D0
:1042B000B8750000B8750000B875000051D901004C
:1042C000F1D80100EDD8010051D001004DD9010015
:1042D000F5D8010015D90100F9D8010029C0010065
:1042E0008DD90100B8750000B8750000CD780000C8
:1042F000B875000095CC0000B8750000BF00020042
:10430000B8750000B8750000B8750000B8750000F9
:10431000B8750000B8750000B8750000B8750000E9
:10432000B8750000B8750000B8750000B8750000D9
:04433000B87500005C
:10433400F8B500BFF8BC08BC9E467047F8B500BF8E
:10434400F8BC08BC9E46704710B5054C237833B9B9
:10435400044B13B1044800E000BF0123237010BDD7
:10436400E022002000000000C01E040008B5034B3A
:104374001BB10349034800E000BF08BD0000000072
:10438400E4220020C01E0400154B002B08BF134B71
:104394009D46A3F5803A00218B460F461348144AE4
:1043A400121A33F07CFE0F4B002B00D098470E4BB3
:1043B400002B00D098470020002104000D000D4878
:1043C400002802D00C4800E000BF33F011FE2000AA
:1043D40029000DF037F933F0F7FD00BF00000800A5
:1043E4000018002000000000000000002A22002025
:1043F400644E00200000000000000000002307B508
:10440400CDE90033012369464FF0FF308DF80230C7
:1044140014F05CF8003018BF012003B05DF804FB11
:1044240001207047012070470120704708B5C37B05
:104434002BB9C37C012B0AD003D3022B0AD08120D1
:1044440008BD0AF01DF80028F9D00020F8E70AF0AA
:1044540027F8F8E70AF034F8F5E710B5437D044689
:10446400012B10D10368028A598858790EF0C8FFCD
:1044740048B123685B88062B18D0192B16D0032B60
:1044840014D0C32013E0637D002BFAD12368228A61
:10449400598858790EF0ABFF0028F2D023685B8866
:1044A400032B03D0062B03D0002BEAD1812010BDAF
:1044B4002046BDE81040FFF7B9BF01207047012036
:1044C400704701207047B52070477047002070473F
:1044D400002070470020704700207047002070477C
:1044E400002070470020704700207047012070476B
:1044F40001207047B52070470020704700207047A6
:1045040000207047002070477047002070477047B4
:104514000020704770478120704770470020704723
:104524008420704770470020704770477047704779
:104534007047704700207047704700207047002084
:1045440070470000034B1B681878012808BF02203D
:10455400704700BFBC2C0020032070477047704791
:1045640070470020704700207047002070470020EB
:1045740070470020704700207047002070470020DB
:1045840070477047B520704700207047002070477F
:1045940000207047704770477047B52070477047D8
:1045A400704700207047704770477047704700009D
:1045B4000023FF21084A137082F8783082F86530AE
:1045C40082F8773082F8793082F87A1082F87B307A
:1045D400024A1360704700BFE6360020F83C002012
:1045E400F8B50D468C680A6806462849202003F071
:1045F40010FF6B687BB92649202003F00AFF2020B6
:104604000CF0DEFB2349202003F018FFBDE8F8403E
:1046140020200CF0D5BB002EF1D01F4D1F4E204F93
:10462400013C14F8013F23B91A49202003F006FF86
:10463400E5E7752B18D0762B18D0772B18D0732B71
:1046440018D0722B18D0712B18D0622B18D06E2B67
:1046540018D02A2B18D01349134A212B18BF1146FE
:10466400202003F0D6FEDCE72946F9E73146F7E7D8
:104674003946F5E70D49F3E70D49F1E70D49EFE751
:104684000D49EDE70D49EBE70D49E9E78DB9030065
:10469400A381030054810300618103005581030059
:1046A4006C810300AD810300AA81030078810300BB
:1046B400828103008D81030098810300A28103009D
:1046C400A7810300F0B50026204A92F87B301844F5
:1046D40052FA80F090F865C090F8665030461C4B52
:1046E400A5EB0C051F78EDB2F4B2A54225D90CEB6D
:1046F400060313445B7811B10CB92D2B17D0782B1A
:104704001FD0582B05D108B137240AE0013C012CF5
:1047140014D9602B17D8402BF6D83A2B34BF302449
:1047240000241B1BDBB29F4203D900FB0730013678
:10473400DAE70523002082F87930F0BD1027002045
:10474400F5E70028E2D05724EBE700BFE636002067
:10475400D6210020014B1B6818687047F83C0020E4
:10476400FFF726BF034B93F8770093F87B30C01A0A
:10477400C0B27047E63600200021FFF7A3BF000057
:1047840010B50A4B93F87B20024453FA82F292F854
:10479400652013445C78A4F12D0359425941FFF775
:1047A40091FF2D2C08BF404210BD00BFE63600200B
:1047B40030B50C4A92F87B300344C043DBB2C00FDF
:1047C40039B1D51895F8664095F86550641B241ADC
:1047D4000C7042FA83F393F865301844024B184482
:1047E40030BD00BFE6360020E73600202DE9F34156
:1047F40015460F460DF107011C46FFF7D9FF9DF83A
:1048040007308046AB4288BF8DF807509DF807609B
:104814000CB1AC1BE4B222460021384633F03FFC15
:1048240032464146381933F021FC304602B0BDE827
:10483400F08138B50C4601230822FFF7D7FF04F1B5
:104844000803621E043413F8011D12F8015FA34229
:104854001D701170F7D138BD38B5054601460120E9
:10486400FFF7BEFED5E901436CB91C46084D236829
:1048740063B12946202003F0CCFD21460020FFF738
:10488400AFFE0C34F3E71B786E2BEFD038BD00BFBE
:104894002AF6030008B50449202003F0BAFDBDE858
:1048A400084020200CF08CBA1581030038B5FFF7BE
:1048B400F1FF0024054D61190C34631953F80C3CC5
:1048C40003B938BD0020FFF78BFEF4E7149303000F
:1048D4002DE9F84F1F4B204D53F820201F4920206D
:1048E40003F097FD2B681BB9BDE8F84FFFF7DEBF57
:1048F4001B4FFFF7CFFF0026B946DFF86CA097F8EF
:104904007B30F4B2013B9C4204DB2868BDE8F84FDD
:10491400FFF7A2BF47FA86F393F8658000234C445F
:10492400C84494F8662094F8651003F1010B521AF8
:10493400DBB2D2B2934205D30A49202003F069FDC9
:104944000136DCE743445A785146202003F061FDE8
:104954005B46E6E76C1D0020F83C00201081030054
:10496400E63600202BF60300C7A303002DE9F74F1A
:10497400884C94F87730002B00F0A180864B671C9C
:104984001B7813F0010F1FD00025844E14E0631927
:1049940093F8662093F865302020D21A44FA85F300
:1049A40093F86510D2B239440CF005FA3146202050
:1049B40003F02FFD0135EDB294F87730AB42E6D821
:1049C4007749202003F025FD002694F87730DFF89E
:1049D400DCE10193734B4FF00008714645461EF825
:1049E400012B91F801C007EB020AACEB020C5FFA51
:1049F4008CFC1868002852D00138D14619E02AB935
:104A0400002D4AD04FF001080C33F2E719F8011BCE
:104A1400A1F1410BBBF1190F98BF2031A2F1410B59
:104A240098BFC9B2BBF1190F9CBF2032D2B28A42DF
:104A3400EAD1A9EB0A01614510F8012FDFD1002A60
:104A4400DED11D46584B01361D6094F87B30F6B21A
:104A5400013384F87B30D5E90123002A35D01B7853
:104A64006E2B31D03F2B23D04FF000094FF0070BB2
:104A7400C846042394F87710AA68B14212F8087063
:104A84002BD8AFB1904498F801302A2B10D0212FA5
:104A94001CBF032384F879300AE01D46B4E7B8F15B
:104AA400000F01D1002DCDD10223002584F87930E7
:104AB40094F87900002869D168680FF0CFF903B041
:104AC400BDE8F04FFFF774BD1346019AB24282D895
:104AD40003221D4684F87920EAE7732F09D8712F41
:104AE4000BD2212F1FD0622F3CD0002F4BD1032299
:104AF40046E0A7F17502022A45D8752F29D0762FF2
:104B04002AD0732F2BD0722F47F6FF7A18BF4FF09D
:104B1400FF3A012148460193FFF7D4FD5045019B1C
:104B240001D984F87930AA68424452782A2A94F840
:104B340079201CBF08F101085FFA88F8002AB7D170
:104B4400212F1FBF013609F10109F6B25FFA89F975
:104B540090E74FF0FF0ADCE74FF6FF7AD9E74FF012
:104B64007F0AD6E794F87B204A4454FA82F292F8FA
:104B7400652022445278222AD5D07B2AD3D005221C
:104B840084F87920CFE784F879B0CCE7FFF7A0FE6A
:104B940095E700BFE6360020953700202BF603008A
:104BA4005281030014930300F83C00204B3700208B
:104BB4002DE9F34106460D464FF000085C4C5D4F6D
:104BC40066B90DF1070128460CF0F0F878B12628F3
:104BD40000F0A980012384F879304BE0002D00F027
:104BE400A28016F8013B013D8DF80730EDB23A780A
:104BF4009DF807300D2A3B7001D10A2BE0D00D2B14
:104C04000CD0A3F10A025142514122788846042A69
:104C1400D6D8DFE802F0051D263C31000121F4E777
:104C240021B1FFF7A3FE4FF00108C9E7202B63D0A1
:104C3400222B07D10223237094F87820642A5DD1B3
:104C44000623C8E77B2B01D10323F4E70123F2E712
:104C540009B9202BF0D194F87730112B3FD10323DD
:104C6400B9E7222BF7D00029E6D005234FF001083D
:104C740084F8793004232370B8F1000FA0D094F89D
:104C8400790008B1FFF724FEFFF792FC98E77D2B2B
:104C940094F87A0003D1FF28DDD005239BE7602B2D
:104CA40013D8402B13D8392B8CBF002230229A1AE8
:104CB400D2B20F2A10D8FF280BD0FF2302EB001228
:104CC4008DF8072084F87A30B6E75722EFE73722C9
:104CD400EDE784F87A2073E7202BDED170E7013307
:104CE400DBB294F8782084F87730234483F8652085
:104CF40000232370002994D1884661E72378012B8F
:104D040009D19DF80730A3F1410119299CBF203333
:104D1400DBB28DF807309DF80710A31801325970E3
:104D240084F878204CE7404602B0BDE8F08100BF2B
:104D3400E6360020F637002049BA89B24840C0F36D
:104D440003114140080380B24840C3B280EA4310D3
:104D540070471EF0E1B8704770477047704770475E
:104D6400704770477047704770477047704700201E
:104D740070477047002070477047704700207047A5
:104D8400002070477047012070470120704770472A
:104D94007047704770477047704770472DE9F04778
:104DA4000024204DDFF89C90DFF89CA05FFA84F883
:104DB40040461FF017F9FF2806460CD122461A492F
:104DC400287803F03BFB287801340BF0F9FF152C0D
:104DD400ECD1BDE8F087154B47B213EA270338BF7F
:104DE400534659F824201249287803F027FB002F52
:104DF400E9DA14B1B8F1030F08D10E4B16F0010F24
:104E04000D49287818BF194603F018FB0A2CDAD18B
:104E14000A4B16F0010F0A49287818BF194603F007
:104E24000DFBD0E720220020CD8203005481030033
:104E3400F582030090820300A6820300B882030077
:104E4400C28203003C82030030F403007047002058
:104E5400704770477047704713B50A4C00900A4B6F
:104E64000A4A0B4901200FF0E3FF204627F0E6F938
:104E7400012094F90020074902B0BDE810400FF06A
:104E8400D7BF00BFDF370020B2D70300728403000E
:104E9400778403008B84030010B5054901200FF0CB
:104EA400C7FFBDE81040034B01215B69022018478E
:104EB4004C84030084430020132870B513D91BF0DD
:104EC400F5F9144C144D20806B6901210220984798
:104ED400124922880B880E469A4205D903F2F3132D
:104EE400934208DB0A8070BDC3F57F43FF3313444C
:104EF400B3F5FA7FF6DB0A4901200FF099FF238806
:104F0400072033802B6A9847BDE8704005481FF09E
:104F140045BB00BF203400208443002072340020AD
:104F24005F840300203E0020F8B51BF0BFF94B4C12
:104F34000746E36998470022494B4A4E1A70337872
:104F44000546032B4DD8DFE803F002143C66636A80
:104F54000220984728B10A21BDE8F84040481FF0D4
:104F640029BB636A032098470028F4D101233370D6
:104F740020E0236A04209847E36A01209847AF425F
:104F840007D905F1C703BB420BDBD235E91B89B254
:104F9400E2E7C5F57F43FF333B44C72B01DCD33540
:104FA400F4E7A07858B902233370A36B9847236BB6
:104FB40001209847BDE8F84029481FF0EFBA0323C1
:104FC400D5E7636B9847054660B1236B002098478B
:104FD400A36B002098470F2121481FF0EBFA03230D
:104FE4003370F8BD204B1A78511C132A197001D85C
:104FF4000121B1E71870236B9847A36B28469847A3
:105004000323174833701FF0C9FABDE8F840174965
:1050140001200FF00DBF164901200FF009FFA378FE
:10502400B3B9E3680121022098470123A370072044
:10503400636A984738B1A36A072098470D4A1378E2
:1050440043F0040313700023074A33701370C8E756
:10505400E3680021022098470023E7E78443002007
:10506400203E0020D7380020E9380020C485030002
:10507400E0850300BB37002010B5054901200FF07F
:10508400D7FEBDE81040034B01215B69002018479F
:10509400F48303008443002010B5054901200FF078
:1050A400C7FEBDE810400121024B08465B69184762
:1050B4002684030084430020054B064A59891B7A41
:1050C400118093707F210423252003F011B800BFC1
:1050D40084430020EC3D002038B5144D04232846B9
:1050E4007F22252102F0CAFF114C2888AB78608109
:1050F400237230B9B42320726381E36A9847FFF7BF
:10510400DBFF237A7BB100232A880A49012023701C
:105114006370A3700FF08CFEAA7807490120BDE8E4
:1051240038400FF085BE0123EEE700BFEC3D0020C0
:1051340084430020398503004D85030007B50CF036
:105144009DFC03F01BFD0023012241F6FF71CDE914
:1051540000320748074A03F0CCFDFFF7BDFF4FF4C8
:10516400FA61054803B05DF804EB1FF023BA00BFF1
:10517400683E0020514E0000F83D0020132870B511
:1051840013D91BF093F8144C144D20806B69012142
:1051940000209847124922880B880E469A4205D966
:1051A40003F2F313934208DB0A8070BDC3F57F4317
:1051B400FF331344B3F5FA7FF6DB0A4901200FF0FD
:1051C40037FE2388084833801FF0E8F92B6A05204E
:1051D400BDE87040184700BF2234002084430020FB
:1051E4007434002007840300183E00202DE9F041A8
:1051F4000025404C404E1BF059F8404FE369984756
:1052040001203570236B98473878B84602281AD0A5
:10521400032855D001280DD1E36A984725785DB954
:10522400022328463B70A36B984730461FF0B6F91B
:10523400334B1D80BDE8F08103233B703046BDE84D
:10524400F0411FF0ABB9636B98478046D8B1236B2C
:1052540028469847A36B0324284698470F213046D5
:105264001FF0A8F93C701BF021F8254E254B32881D
:105274001860254901200FF0DBFD35802046BDE88C
:10528400F04102F0DBB9214B1A78511C132A197032
:1052940005D801213046BDE8F0411FF08BB91870E4
:1052A400236B9847A36B40469847032330463B70D3
:1052B4001FF074F9BDE8F041154901200FF0B8BDA5
:1052C4002078E36888B901219847012323701AF0F4
:1052D400EDFF00220F4B4FF47A7118600B4B064818
:1052E4001A70012388F80030D5E7294628469847E4
:1052F4002570ECE784430020183E0020262200207D
:105304003E340020003E002066850300EA38002079
:10531400788503000C3E0020132870B513D91AF0C9
:10532400C5FF0121134C144D20806B690846984732
:10533400124922880B880E469A4205D903F2F313C8
:10534400934208DB0A8070BDC3F57F43FF331344E7
:10535400B3F5FA7FF6DB0A4901200FF069FD2388D3
:10536400062033802B6A9847BDE8704005481FF03B
:1053740015B900BF24340020844300207634002073
:10538400398403004C3E0020F8B51AF08FFF4A4CD4
:105394000746E36998470022484B494E1A70337810
:1053A4000546032B00F28180DFE803F002143C631E
:1053B400636A0220984728B10A21BDE8F8403F48B3
:1053C4001FF0F8B8636A042098470028F4D1012339
:1053D400337020E0236A03209847E36A012098474A
:1053E400AF4207D905F1C703BB420BDBD235E91B3A
:1053F40089B2E2E7C5F57F43FF333B44C72B01DCA9
:10540400D335F4E7607858B902233370A36B984717
:10541400236B01209847BDE8F84028481FF0BEB828
:105424000323D5E7636B9847054648B1236B0020F7
:105434009847A36B0020984703230F213370BCE7E0
:10544400204B1A78511C132A197001D80121B4E792
:105454001870236B9847A36B284698470323174873
:1054640033701FF09BF8BDE8F840174901200FF096
:10547400DFBC164901200FF0DBFC6378B3B90121CE
:10548400E36808469847012363700620636A9847D7
:1054940038B1A36A062098470D4A137843F00203F3
:1054A40013700023074A33701370F8BDE3680021BA
:1054B400012098470023E7E7844300204C3E002066
:1054C400D6380020EB38002094850300B085030013
:1054D400BB3700200A2101481FF06CB8543E00205D
:1054E4000A2101481FF066B8283E00200A2101481D
:1054F4001FF060B83C3E002010B50024074B062086
:105504001C7001F09FFD012806D1054B2146BDE822
:1055140010405B690220184710BD00BF3C3E0020CC
:105524008443002010B50024064B01201C7001F0B8
:1055340089FD012805D1044B2146BDE810405B6973
:10554400184710BD283E00208443002010B50024D5
:10555400074B20461C7001F075FD012806D1054B50
:1055640021462046BDE810405B69184710BD00BFC6
:10557400543E00208443002008B50DF0F1F950B9E1
:10558400094A938843F00103938008490120BDE848
:1055940008400FF04DBC0238C0B20128F5D8024AC9
:1055A400938843F00203EFE7844300201A84030046
:1055B400002208B5164B1A70164B1978062926D8FE
:1055C400DFE801F0040D0F11131A1E0001221A70F6
:1055D4004FF47A71BDE808400D481EF0EBBF02227B
:1055E400F5E70322F3E70422F1E705220A491A70DA
:1055F40001200FF01DFCEBE7062208491A70F7E7BB
:105604001A7007490120BDE808400FF011BC08BD1D
:10561400303E0020EF370020F184030009850300A9
:1056240021850300002208B50F4B1A700DF098F97C
:1056340002280AD10D4A9388D9050DD523F4807325
:105644009380BDE80840FFF7B3BF032801BF074AB2
:10565400938843F4807393804FF47A71BDE80840D3
:1056640001481EF0A7BF00BFF03D00208443002086
:1056740037B500253B4B3C4C1D700DF071F90228E9
:1056840017D1A388D80714D5384901200FF0D0FBCF
:10569400A388032023F00103E570A380A57101F022
:1056A400A5FF42F21071324803B0BDE830401EF04D
:1056B40081BFA38899070ED0E3780BB92823A3717F
:1056C400032001F0BBFFA388DA0724D5A379272B95
:1056D40003D80133A37103B030BD0025E378A5716D
:1056E4005A1C112BE27009D808F0FEFC214B0090E3
:1056F400214A224901200FF09BFBECE720490120BD
:105704000FF096FB032001F071FFA388E57023F0EE
:105714000103A380DFE79B07DDD50EF0B5FF2378F7
:105724001BB10A2117481EF045FF637823B14FF4DB
:10573400967115481EF03EFFA37823B14FF41671FD
:1057440012481EF037FF0025B423284663812572D2
:10575400E36A9847FFF7B0FCA388E57123F00203DE
:10576400D7E700BF043E002084430020BC8403002C
:10577400303E0020DCD503007284030077840300EC
:10578400DB840300183E00204C3E0020203E002015
:1057940010B504461D4901200FF04AFB2268E37C42
:1057A4005279013A012A12D0022A1FD06AB9012B78
:1057B40006D1174B1B7843B916481EF0EFFE04E0E0
:1057C4001BB9134B1B78002BF6D1002010BD012B05
:1057D40005D10F4B5B78002BF7D10F48EDE7002B79
:1057E400F3D10B4B5B78002BEFD0F6E7012B05D1FF
:1057F400074B9B78002BE8D10848DEE7002BE4D167
:10580400034B9B78002BE0D0F6E700BF9A8403009B
:1058140084430020183E00204C3E0020203E0020FF
:105824000120704782B2074B4AB1000C1A8008BFAE
:105834004FF6CE22044B14BF18801A8070474BF6E3
:10584400EF62F2E7982100209A210020094B188882
:10585400020448BF80F0620042001A80064A13889E
:10586400190444BF83F4805383F00B03590011805F
:1058740058407047982100209A2100200022034BB1
:105884001870034B1970034B1A707047D5360020FB
:10589400D4360020EE3700202DE9F04F234E85B09A
:1058A400337807468846002B3DD04FF6FB73204DD6
:1058B40098422C7803D952211E4801F0B3FA1E4BAA
:1058C4004FF0000B9A4632785FFA8BF94A45187804
:1058D40011D9484402A9C0B2019328F0E9FD082275
:1058E40041460DEB020032F0A7FB0BF1010B019BCB
:1058F4000028E8D14C462B78A34207D1631C3278A8
:10590400DBB29A422B7004BF00232B709AF800304C
:1059140041461C44E4B2204628F008FF18B9394631
:10592400204628F093FD05B0BDE8F08FD436002062
:10593400EE370020F3850300D5360020024B18789B
:1059440000F07F00704700BFEC380020034B18784C
:105954000130C0B2187000F07F007047EC380020AE
:105964001FB5030A8DF80E300323009303AB8DF8A3
:105974000D0000F0C7F905B05DF804FB1FB58DF804
:105984000F100421030A8DF80E30009103AB8DF83B
:105994000D0000F0B7F905B05DF804FBF0B589B06F
:1059A4001768BDF838509DF83C60CDF80970576809
:1059B4008DF81250012E4FEA1525DDF840C0BDF8D0
:1059C4004440CDF80D708DF811308DF813508DF8DA
:1059D400146016D0032E1BD1DCF80030CDF815303E
:1059E400DCF80430CDF819309DF848308DF81D30BE
:1059F40016230093BDF84C2002AB00F083F909B0E4
:105A0400F0BD8DF81540240A8DF816400F23F0E7F9
:105A14000120F4E71FB50C46194602238DF80D202A
:105A240000930A4603AB0146204600F06BF904B02C
:105A340010BD10B51C460B6886B0CDF80D304B6810
:105A44008DF81520CDF811300A2322460093342115
:105A540003AB00F057F906B010BD000030B50024C8
:105A640085B0ADF80A20021D92B2012A1D46ADF898
:105A74000840ADF80610ADF8044003D94FF6FF72A4
:105A8400904207D1064A2B46127801A926F09CFDC4
:105A940005B030BD014601AA204626F05BFEF7E7BB
:105AA400292200202DE9F04F834689B00C461F4679
:105AB40090463AB310461FF08DF9C0F3470A1FB35E
:105AC40038461FF087F9C0F34709FFF73FFF4FEA55
:105AD4001B238DF818008DF81B400022240A062190
:105AE40006A88DF819B08DF81A308DF81C408DF881
:105AF4001DA01FF083FAADF8160038B9182009B0BC
:105B0400BDE8F08F9246DAE7B946DEE74FEA4A018C
:105B1400CBB2DC1DE4B204EB4901C9B20DF11600AD
:105B240001931FF05EFC0028E8D10646F2B29245CC
:105B3400BDF8163015D801994A46063101F0FE0128
:105B440018461FF0BFFC0026F5B2A945BDF8168023
:105B54002AD84346BDF8482006215846FFF77EFF61
:105B6400CDE75500EDB229464046039302921FF05B
:105B740095FC029A039BD11C4900024601F0FE01E8
:105B840018461FF09FFCBDF81630691CC9B2404688
:105B940002931FF083FC029BE91D0246C9B218461A
:105BA4001FF090FC0136C1E76D00EDB2294638467E
:105BB4001FF074FC2146024640461FF083FC691C1A
:105BC400C9B23846BDF816801FF068FC611C024655
:105BD400C9B2404602341FF075FC0136E4B2B3E7A3
:105BE400F0B589B00E4602A905460CF085FF0028E1
:105BF40000F08180FFF7AAFE8DF810001EF0D0FBA4
:105C04008DF811001EF0CCFB3D4A000A13688DF894
:105C14001200CDF8133053680F21CDF81730BDF8BA
:105C2400083000228DF81C301B0A8DF81D309DF8B9
:105C34000D3004A88DF81B508DF81E301FF0DEF9CE
:105C4400ADF80600002858D000279DF80D30FAB2B0
:105C5400934207F1010718D801230DF10E011A46EA
:105C64000DF106001FF006FA00279DF80E30FAB277
:105C7400934207F1010723D8BDF8063032462021AC
:105C84000020FFF7EBFE09B0F0BD002128460CF020
:105C94005FFF01238DF805001A460DF10501044646
:105CA4000DF106001FF0E6F90123240A1A460DF14E
:105CB40005010DF106008DF805401FF0DBF9C4E77E
:105CC400012128460CF044FF01238DF805001A46F3
:105CD4000DF1050104460DF106001FF0CBF9012377
:105CE400240A1A460DF105010DF106008DF8054050
:105CF4001FF0C0F9B9E7A320C5E71820C3E700BF28
:105D0400584E00202DE9F0411C460E4617469DF8DA
:105D140018800546FFF71AFE0022207041462046EF
:105D24001FF06CF9034630B13A4631462846BDE8C7
:105D3400F041FFF793BE1820BDE8F08108B5FFF7E6
:105D4400FDF910F037F9BDE8084005F009BF08B5C2
:105D5400FEF7E0FBBDE8084010F058B908B5FEF7BF
:105D6400DCFBBDE8084007F0DBBEFFF711BDFEF722
:105D740000BC0020704738B504460D46FEF713FCFE
:105D840029462046BDE838400BF0F8BEFEF7F3BBC9
:105D9400FEF7FEBB02220621012010F031BE422292
:105DA4000621012010F02CBE41220621012010F012
:105DB40027BE01220621104610F022BE40220621F1
:105DC400012010F01DBE00220621012010F018BE93
:105DD40040220321012010F013BE012203211046AA
:105DE40010F00EBE00220321012010F009BE022291
:105DF4000321012010F004BE01220021092010F02B
:105E0400FFBD00000022014B1A707047A03E002025
:105E1400002210B5164B1A70164B197811B11A706E
:105E2400FFF758FB144B1A78032A0ED8DFE802F068
:105E3400020E100201224FF4FA5110481A701EF09B
:105E4400B9FB1AF033FA0E4B188010BD02221A70F7
:105E540000220A4B1A700A4B1C881AF027FA04F520
:105E6400F9541F348442F0DABDE81040FFF784BBD4
:105E7400A03E0020AE210020DE360020B03E0020EF
:105E84000433002038B51AF011FA134B134A1C8856
:105E940000231370124A041B1370124BA4B21A7815
:105EA400012A03D001221A70FEF73FFBB4F5FA5F12
:105EB4000D4D09D329782046B1FA81F14909FFF73C
:105EC400DBF803232B7038BD2046FFF757F907484A
:105ED4001EF064FBF5E700BF04330020A83E002059
:105EE400B03E0020AE210020DE360020A03E00207F
:105EF400002208B5134B1A70134B197811B11A709C
:105F0400FFF7EEFA114B1A78032A0ED8DFE802F0F5
:105F1400020E100201224FF4FA510D481A701EF0BD
:105F240049FB1AF0C3F90B4B188008BD02221A7002
:105F34004FF4FA6106481EF03DFBBDE80840FEF749
:105F4400F6BA00BFA03E0020AF210020DF360020BB
:105F5400883E00200633002038B51AF0A7F9134B09
:105F6400134A1C8800231370124A041B1370124B2B
:105F7400A4B21A78012A03D001221A70FEF7D6FAC5
:105F8400B4F5FA5F0D4D09D329782046B1FA81F1B1
:105F94004909FFF781F803232B7038BD2046FFF72A
:105FA400BBF907481EF0FAFAF5E700BF06330020F4
:105FB400903E0020883E0020AF210020DF360020E4
:105FC400A03E0020002208B5124B1A70124B19781B
:105FD40011B11A70FFF78AFA104B1A78032A0ED8F7
:105FE400DFE802F0020E100201224FF4FA510C48CD
:105FF4001A701EF0DFFA1AF059F90A4B188008BD1E
:1060040002221A704FF4FA61BDE8084004481EF0F9
:10601400D1BA00BFA03E0020B0210020E03600200D
:10602400803E00200833002010B51AF03FF9114BD0
:10603400114A1B88114CC01A00231370104A80B2F5
:106044001370104B1A78012A1CBF01221A70B0F584
:10605400FA5F08D32178B1FA81F14909FEF71CFFF0
:106064000323237010BDFEF727FF07481EF096FA9E
:10607400F6E700BF08330020983E0020E0360020F9
:10608400803E0020B0210020A03E00202DE9F74FE3
:1060940007460D46144699464FF0010BDFF8708011
:1060A40003F10C0A15B903B0BDE8F08F102D2E468C
:1060B40028BF10264946154AF3B251F8040B51453E
:1060C40042F8040BF9D101939AF8001010481170AA
:1060D400002288F80F4088F80E2088F800B028F0D5
:1060E400C1FB3A4601340B48019BE4B212F8011B90
:1060F40010F801CF81EA0C0102F8011CD11BC9B2CE
:106104009942F3D3AD1BADB21746CBE799370020C4
:1061140098370020973700202DE9F04F85B002937F
:106124000F9B8046019303461646BDF83890344AC7
:106134000D4600F10C0153F8040B8B4242F8040B9A
:10614400F9D11B784FF0020A137049232D4C2370A8
:1061540020464FEA1923A37384F80F90A34628F02E
:1061640081FB5246237883EA1623237063787340B5
:10617400637000271EE0C2F11001F31B89B29BB2C9
:106184008B4228BF0B462946501B03900398A1EB72
:10619400050C1FFA8CFC08189C45C0B21AD31A448B
:1061A400D2B21F44102A1D44BFB203D1204628F0A6
:1061B40059FB0022B742DED312B1584628F052FBF5
:1061C400BAF1010F4FF00002029D4E460BD04FF082
:1061D400010ACEE711F801CB1BF800E08CEA0E0CA3
:1061E4000BF800C0D2E7074B01991B6801980B60BC
:1061F4004346042105B0BDE8F04FFFF747BF00BF99
:106204009937002098370020F7B5099FBDF8204042
:106214000646CDE900471D46FFF77EFF2CB1334605
:10622400012221462846FFF731FF002003B0F0BDCC
:106234002DE9F7431E46054688469146BDF8287069
:106244000D4C0346394630460122FFF71FFF334603
:106254004A4641462846CDE90074FFF75DFF042213
:1062640021460B9831F0E8FE002814BF7E20002060
:1062740003B0BDE8F08300BFE136002073B51C46CF
:10628400044D8B181E59CDE900452E60FFF7D0FF51
:1062940002B070BD403800200020704700207047D5
:1062A4000020704770477047F7B50024094E0A4F25
:1062B4000A4D56F8243003B93B6835F814200849D0
:1062C40000920120224601340EF0B2FD292CF0D1B7
:1062D40003B0F0BDB4200020682100208C460020CB
:1062E400999E030008B5FFF7DFFFBDE8084000F002
:1062F400F1B8000007B50020FEF73EFAC2B2282A22
:106304000DD8084B53F822300BB9074B1B680749CB
:10631400012031F81210009105490EF089FD03B0F7
:106324005DF804FBB4200020682100208C46002086
:10633400999E0300FFF7B8BF7047000038B50020EE
:10634400FEF71AFA04460120FEF716FA0546054937
:1063540001200EF06DFDA9B2E0B2BDE8384000F0B6
:10636400D1B800BFA49E0300F7B50024094E0A4F1C
:106374000A4D56F8243003B93B6835F8142008490F
:1063840000920120224601340EF052FD292CF0D156
:1063940003B0F0BDB4200020682100203A4600205C
:1063A400999E030073B502AB03E906000446019D00
:1063B4001DF072FC064620461DF07CFC9DF8000092
:1063C4008EB1202C0FD82B78012B37D84FF6FF75C0
:1063D400394903EB4313234431F81320AA4202D072
:1063E400013221F813204FF6FF72344B344933F84D
:1063F400146031F8145096421CBF721C23F8142008
:1064040004F0FD02092A31D19A8A898A02448A4217
:10641400B4BF9A82998233F81430AB4204D3AE42AB
:1064240002D22046FEF784F80025264BEA5CA242FD
:1064340028D00135112DF9D102B070BD022BD2D173
:106444004FF6FF714FF6FF751B4B33F814208A4249
:106454001CBF013223F8142004F1210233F8121076
:10646400A9421CBF013123F81210BCE71D2CD2D164
:106474005A8F1118A942BDBF02F1FF3212185A8770
:106484005D87C8E71AF001FB0F4B04461B78834273
:1064940003D8DD210D4800F0C5FC4FF6FF710C4A0E
:1064A40004EB04142C4432F814308B42C4D001336E
:1064B40022F81430C0E700BFDE4600208C460020DE
:1064C4003A46002010A20300F32100208CA103000F
:1064D4001846002052220021014831F0E0BD00BFDF
:1064E4008C4600205222FF21014831F0D8BD00BF64
:1064F4003A46002008B5FFF7EDFFBDE80840FFF776
:10650400F1BF0000014B23F8101070473A460020F9
:10651400032310B50F4C1022C4E904330E4B0F496A
:10652400E3610023A16121660D49E01DC4E919124C
:106534000C49A3626362E3622367E36663672262D2
:1065440031F0BFFD0849204631F0BBFD2023A37183
:1065540010BD00BF003C0020C436002021A203006F
:10656400B43600202AA203002EA203002DE9F84F1E
:106574001F4B16461A7881468A4698460AB9FFF791
:10658400C7FF182707FB09873D6FD7F86CB05D4537
:106594002BD9BC6E796E641BB44228BF344629449F
:1065A4005046224631F057FDBB6E2544AB4208BF2E
:1065B4000025A244361BABEB050B5E4528BF5E46A7
:1065C40056B1182303FB0983596E324629445046B9
:1065D40031F041FD3444354424B1182303FB0988C8
:1065E400C8F870502046BDE8F88F0024E3E700BFE8
:1065F400003C0020F8B504460E46174604F0C9FADC
:106604003A46054631462046FFF7B0FF0446284681
:1066140004F0C5FA2046F8BD2DE9F843124D1E4694
:106624002B788146884617460BB9FFF771FF04F0B3
:10663400B0FA00244FF0180C69690CFB04535A6E2D
:106644002AB10134A142F8DC4FF0FF3407E0A14243
:10665400FADDC3E918989F661A67DA665E6704F084
:106664009EFA2046BDE8F883003C0020FFF750BFA7
:1066740070B54FF060441A4B00261A68194D42F069
:1066840001021A60DA680C2042F08072DA60164B5C
:10669400C4F8B03F0223C4F8006EC4F8806EC5F895
:1066A400F03003F07FFF114B00F5D52000F2FC40E1
:1066B400B0FBF3F00E4A0F4B01382861C4F8406E6A
:1066C4001A600D4BC4F8803E4FF48073C5F8043350
:1066D400D4F8003E43F48073C4F8003E70BD00BF9C
:1066E400F0ED00E0000004E055CEACC5F8590D0013
:1066F400FF030040001000E00D00010010B501246C
:106704000F4B00201C6004F0E2FA2346042203210C
:10671400002004F037FB204611F06EFBFFF7A8FFC2
:1067240011F06BFB074B1C70FFF7A0FF23464022C0
:1067340005490648FFF770FF054B1860C00F10BDF0
:1067440044D40340693700200038002035A20300F8
:10675400DC1F002038B5194C04F01BFA2378022BF7
:1067640005BF032300250125237004F018FA25BB77
:106774004FF06043D3F8802ED10711D510490A6831
:1067840022F440620A60D3F8802E22F00102C3F89A
:10679400802ED3F8802E1202FBD4642019F0D9FC89
:1067A4000023084AC2F8F030C2F80433A2F5443298
:1067B400A2F5047213600123237038BD69370020E9
:1067C400001000E0000004E0024B1868003018BF1D
:1067D40001207047F0ED00E0D123054A03701378DF
:1067E4004170090A8170591CC370117004207047EC
:1067F400C53800202DE9F74F0E788346042E0F4646
:1068040061D919F053FDDFF8C48082464FF6FF7159
:106814000024C146751DEDB2D8F800305BB1A54225
:1068240009D9019119F042FDA0EB0A0080B2B0F53C
:10683400FA7F019907D9281B18BF012004233B7054
:1068440003B0BDE8F08FB4B3012C37D0EA1E631C4B
:106854009442DBB21CD1CCB24FF06042D2F8800E2D
:10686400C00713D51046D9F80CC04CF0807CC9F889
:106874000CC0D0F800CE4CF4807CC0F800CED0F828
:1068840020C0BCF1000FEED082F820401C46C3E7C4
:10689400AA1E944202D1C1F30724DDE76A1E944282
:1068A4000FD05C4414F8024C01932046FEF744FADE
:1068B400019B0146D0E75B240123CDE73446022344
:1068C400CAE75D24C8E70020B8E700BFF0ED00E0A8
:1068D40000B5084B91B0402269461868FFF78AFE5C
:1068E40020B1C2B26946122011F036FA11B05DF837
:1068F40004FB00BFDC1F002000F0F6B800F0CAB8AB
:1069040010B5002090B0FDF737FF402269460446D9
:1069140000F038FA034630B12246064901200EF051
:1069240087FA10B010BD0122694608200EF012FA51
:10693400F7E700BF45A2030010B500F093F8002864
:1069440014BF79226E22144901200EF071FA00F06E
:1069540089F8F8B100F05CFA002814BF79226E229D
:106964000E4901200EF064FA02220D4901200EF0B6
:106974005FFA0C4B0C491C1F53F8042C01200EF039
:1069840057FA04F11003E26807490120BDE81040FA
:106994000EF04EBA3F22E3E7B3A30300CAA30300F9
:1069A400DAA30300BC3E0020F9A3030070B500F095
:1069B4007FF804461F4901200EF03AFA2CB9BDE8CD
:1069C40070401D4901200EF033BA00F079F80546F5
:1069D40022691A49012026880EF02AFA6288184989
:1069E40001200EF025FA1749A28801200EF020FAA2
:1069F4006388E28813F0100F14BF13491349012070
:106A04000EF016FAA268124901200EF011FAE2689B
:106A1400104901200EF00CFA0F4A104B1049B6F53C
:106A2400817F28BF134601202A46BDE870400EF03E
:106A3400FFB900BF8FA203009CA20300BDA2030004
:106A4400DBA20300FCA2030019A3030036A3030086
:106A540054A3030072A303007DA2030087A20300D2
:106A640090A30300034B1878012894BF0020012051
:106A7400704700BF7137002038B50446044D2878AC
:106A8400A04203D02146FDF754FD2C7038BD00BF51
:106A940071370020054B1B7820B1012B04D802204C
:106AA400FFF7EABF012BFBD8704700BF7137002006
:106AB40008B500F019F8BDE8084005F013BA000065
:106AC40010B5084C237853B9FFF7F2FF0123237064
:106AD40028B10388B3F5817F24BF037D2370207818
:106AE40010BD00BFE6380020154B70B51B78012B94
:106AF40025D805F0DFF9134D0246134901200EF0A5
:106B040097F90120FFF7C6FF2E78FF2E17D105F065
:106B1400E9F998B144881822C4F3400431460B487B
:106B24002C7031F0BCFA54B1FFF7CAFF042806D91F
:106B3400BDE87040CC21064800F074B9287070BDDF
:106B440071370020082200201CA40300B83E002056
:106B54002EA40300FFF7C8BF2DE9F04F4FF0FF3319
:106B64004FF0000987B01446039307468A46CDE9DF
:106B740004998DF81030FFF7B7FFFFF7A1FF624BC0
:106B840006461A780193012A1AD1012818D9B7FBAD
:106B9400F0F300FB13739BB15C4D2A68511C03D0C6
:106BA4002B7A13449F4239D0EA68531C03D02B7DBF
:106BB40013449F4230D040F22D11554800F032F971
:106BC400019B1B78012B09D1B7FBF6F306FB13736A
:106BD40023B14FF4AB714E4800F024F9019B1B78AC
:106BE400012B11D1E219B2FBF6F306FB13265EB1B9
:106BF400921BA41B03920AEB0401324604A831F051
:106C04002AFAA4B28DF81460002C4FD1039B0133EF
:106C14005FD14FF0000958E04FF001090C2303FB4A
:106C240009530FFA89F2187A53001344A6EB0008AB
:106C34005FFA88F84FEA830BA0450BF1040328BFE1
:106C44005FFA84F81844424651462844009331F0D0
:106C540002FA0C2202FB09F905EB09010A7AA4EBFA
:106C640008044244D2B2B242A4B20A72474446D1A2
:106C74000320FFF701FF009BB2B22B44194655F8DD
:106C8400090005F0B1F981460220FFF7F5FE4FF047
:106C9400FF3205EB0B0145F80B20C1E90122B9F1E4
:106CA400000F12D1002CB4D0C24489E70320FFF7AF
:106CB400E3FE22465146384605F096F98146022005
:106CC400FFF7DAFEB9F1000FA0D0484607B0BDE8DF
:106CD400F08F0E4A136801330CD0D36801330BD103
:106CE40001230C2101FB032306AA12E9070083E810
:106CF40007008EE70023F4E74FF00109E5E7002CD5
:106D04007FF462AF85E700BF08220020B83E002070
:106D14002EA4030038B5184B1B78012B28D1174C2F
:106D2400FFF7E2FE236801330FD00320FFF7A4FE30
:106D34002568FFF7C5FE211D82B2284605F054F9E7
:106D440005460220FFF798FE9DB9E36801330FD092
:106D54000320FFF791FEE468FFF7B2FE084982B210
:106D6400204605F041F905460220FFF785FE05B9E6
:106D74000025284638BD00BF08220020B83E002068
:106D8400C83E002070B504460D461646FFF7ACFE1B
:106D94000420FFF771FE32462946204605F033F9F8
:106DA40004460220FFF768FE204670BD70B5044615
:106DB4000D46FFF799FE0520FFF75EFE29462046A3
:106DC40005F030F906460220FFF756FE0E4B1A680E
:106DD400501C09D0944207D861198A423EBF4FF033
:106DE400FF32C3E900229A60DA68511C0AD0A24239
:106DF40008D32C44A2423FBF4FF0FF320349DA606C
:106E0400C1E90122304670BDB83E0020C43E0020D6
:106E140008B5FFF769FEBDE8084005F012B942DE87
:106E24007047000038B504460D4600F07FFD03F0BE
:106E3400A8FE2946204610F05BFF2B462246054952
:106E4400012009F0C3FF29462046BDE83840FFF77A
:106E5400E6BF00BF9FA403006D4B2DE9F0415A68C3
:106E64006C4CA2655A6AE2656B4AD2F8001221663C
:106E7400D2F8042262669A6AA266DA6AE2661A6B39
:106E840022675A6B6267A26BDB6B12F0040FA36775
:106E9400D4E90F5318BF1D4619F0ACF900228542FE
:106EA4000346606522655DD35C4A95425AD8AA6957
:106EB4006264E969A164B4F85810C1F308010629B1
:106EC40054D157498A4251D356498A424ED21188E5
:106ED4004DF64262914249D140F201706268C4F8B1
:106EE4009420A268C4F898204F4A5049934238BF6E
:106EF40013460A468B423CD3D31AE3640023C4E905
:106F04001F33C4E92133C4E92333484E444FDFF827
:106F140014C1AE4233D8D4E91FC7D4E92165D4E9FA
:106F240023124FF0000E013BDBB2FF2B42D1BEF126
:106F3400000F05D0C4E91FC7C4E92165C4E92312C1
:106F4400B4F85830C3F30803052B57D03CD8032BAF
:106F540047D0042B58D040F60722013B4B2B98BF57
:106F6400104640E000221D46C4E911224FF420607F
:106F7400BAE71E68B6F1CD3FBED10433BAE756F87E
:106F8400042DBA42C5D36245C3D2D107C1D500216D
:106F940004EB010EDEF87CE09645BAD004311829E2
:106FA400F6D10BB9052301E0013BDBB204EB83010D
:106FB400CA67AEE7E0464FF0010EBC4637462E46A0
:106FC4000D4611464246AEE70C2B1AD03B2B0CD093
:106FD400062BC0D140F60423B0F5206F08BF184635
:106FE40001E040F60120BDE8F081114B9B6913F0EC
:106FF400020F40F2025318BF1846F4E740F603208C
:10700400F1E740F60520EEE740F60220EBE700BF8B
:1070140000ED00E00000002000E100E0E0170020A7
:107024004C430000108103009C0000200018002045
:107034000080014A28B1012803D006280CBF022091
:107044000320704708B5FFF7F5FF03280FD0302160
:10705400084A12F8303002EBC0025943064B50681C
:107064005B5823FA00F0C04300F0010008BD002083
:10707400FCE700BFB4A4030014C0034010B503F040
:10708400B3FF044603F0A8FF0022012101FA02F332
:10709400234014D01B4B33F812301B4A062B13D059
:1070A40040F207218B420DD1184919480C688442DB
:1070B40008D14CF23C334B800B88138012E0013230
:1070C400102AE3D1104AF8E74FF20F010F4B58880A
:1070D400884214D11988B1F5406F10D211804CF256
:1070E4003C325A80084B1A8840F201739A4201BF1D
:1070F400084B094AD2E90001C3E9000110BD4FF46D
:10710400C061EBE7CCA4030092340020000000200F
:1071140007020FF01C2F002094000020014B188858
:10712400000A704792340020014B1888704700BF52
:10713400923400202DE9F04F4D4C0546A36BD4F852
:1071440050B05A0747BF0027B846D4F84CB0D4F81B
:107154005480D4F840A05DBF464FD4F83CA0DFF87B
:107164003C91DFF83C9113F0080F434B434A18BF9E
:107174001A46B7EB08061FBF6421730801FB0B33E3
:10718400B3FBF6F387B01CBF9BB205933C494B4657
:10719400CDE9017ACDF8008008BF059601F04EF9DB
:1071A400B3B2CDE900931FFA8BF2059B354928460B
:1071B40001F044F9A36B5B070AD49C3E5E4507D1FA
:1071C400626D314B9A4203D23049284601F036F9B8
:1071D400BA4501D8C24504D24A462D49284601F091
:1071E4002DF9284609F0ECFD236E0BB9636EBBB391
:1071F4002849284601F00DF900260127DFF8A4806C
:10720400DFF8A490226E07FA06F3134207D058F869
:10721400262013781BB14946284601F0FAF80136B6
:10722400202EEFD100260127DFF87880DFF8789050
:10723400626E07FA06F3134209D008EB8603D3F80B
:10724400802013781BB14946284601F0E2F8013644
:107254001D2EEDD1284607B0BDE8F04F01F0E8B887
:1072640028460D4907B0BDE8F04F01F0E7B800BF6C
:107274000000002000180020D3A70300DAA70300B1
:10728400E2A7030010A803009C00002049A8030003
:1072940075A8030093A80300C2A80300CEA70300A7
:1072A4008EE00300D8A803008CB903002DE9F8434D
:1072B4000446FFF739FF40F60123984239D010D82D
:1072C40040F2025398421DD040F20173984224D0F8
:1072D40040F20153984213D16549204601F0AEF8BB
:1072E40022E040F6032398426CD03DD340F60423B9
:1072F400984200F09C8040F60523984200F0B58047
:10730400BDE8F8835B49204601F098F85A4B5B4985
:107314005A6C204601F092F806E0574A5849D2E9DF
:107324002523204601F08AF82046BDE8F84309F0F9
:1073340047BD514D5349204601F080F895F86C3013
:107344009F0703D55049204601F078F895F86F302F
:107354005E0603D54D49204601F070F895F96F306B
:10736400002BE1DA4A49B8E7434D4A49204601F087
:1073740065F895F86830980704D06A6C3F49204650
:1073840001F05CF895F96830002B04DA6A6F424921
:10739400204601F053F800260127DFF80881DFF8C2
:1073A4001491AA6E07FA06F3134207D058F8262060
:1073B40013781BB14946204601F040F80136082EE7
:1073C400EFD1B1E72C4D3549204601F037F82B4970
:1073D4006A6C204601F032F895F86930590703D5F4
:1073E4002F49204601F02AF895F96930002B04DA78
:1073F4006A6F2949204601F021F80826294FDFF851
:10740400B480AB6EF340DA0707D557F8262013781B
:107414001BB14146204601F011F80136102EF0D17F
:1074240095F86830002B7FF47FAF1F4955E7124D64
:107434001E49204601F002F86A6C1049204600F00B
:10744400FDFF1026174FDFF86C80AB6EF340DB07AF
:1074540007D557F8262013781BB14146204600F083
:10746400EDFF01361A2EF0D15EE711494BE700BF5C
:107474005DA503009AA5030000000020CAA503002F
:10748400E3A50300FDA5030015A603004FA6030012
:1074940082A60300BEA60300E3A6030007A7030019
:1074A4001EA70300ECA4030064A7030094A7030031
:1074B400ADA70300FFA603002DE9F84F06460025FB
:1074C400154C164FDFF85C80DFF85CA023785FFA78
:1074D40085FB0BB9BDE8F88F57F8043B22461049E9
:1074E400304600F096FF227804F1010982B96278EF
:1074F40082B10BF0030103290CBF414651463046CB
:1075040000F087FF304609F05BFC01354C46DDE7AF
:107514004C46E8E74146F2E7CCA90300040000200A
:1075240054A5030052810300AAE6030000F00CB83E
:1075340000F00AB800F008B800F006B800F004B88B
:1075440000F002B800F000B872B61EF0080F09D0BF
:107554001EF0040F0DD0DFF850E0AEE8FF1F6FF00F
:1075640002000CE0DFF840E0AEE8FF1F6FF00E0011
:1075740005E0DFF834E0AEE8FF1F6FF0060069466F
:10758400EFF309828EE8070086460848084C8545D3
:1075940001D3A54501D384F30888FFF75DFC84F388
:1075A400088818F003FE000004000020E00E00200C
:1075B40000180020FFF7C6BF73B50024094B02ADC5
:1075C400094E45F8043D605D012306EBC001042229
:1075D400496816F83000013403F0D4FB042CF2D1CE
:1075E40002B070BD00010203E0B00300084A12F8C3
:1075F400301002EBC002536801229A4030234B43FF
:1076040042F2100103F1804303F570335A5070477E
:10761400E0B00300084A12F8301002EBC0025368CD
:1076240001229A4030234B4341F2100103F180437D
:1076340003F570335A507047E0B00300084A12F85B
:10764400301002EBC002536801229A4030234B43AE
:1076540043F2100103F1804303F570335A5070472D
:10766400E0B0030010B10020FFF7C0BFFFF7D2BFA6
:1076740000F07E63B3F17E6F70B505460E46144686
:1076840016D106F029F918B19A210D48FFF7CAFB63
:1076940022463146C5F30B0003F062FD044606F0B2
:1076A40029F95CB19D21BDE870400548FFF7BABBDC
:1076B400520818F019FD08B18F21F4E770BD00BF1E
:1076C40010B1030037B57F2A14BF154600254BF2CD
:1076D40034629142044619D17F2241F20201684684
:1076E4000823FFF7EFFF08222649684630F0A4FC80
:1076F40030B908237F2241F2F0116846FFF7E2FF18
:107704006B4603CB2060616003B030BD41F2F012E0
:10771400914219D11C4901388A6CC96C1D1F002B78
:10772400F2D0013B9D4200F8012F4FEA1222F6D11C
:10773400002203349A42E7D00132042A04F8011FDC
:107744004FEA1121F6D1DFE701F47042B2F5805F10
:107754000BD11A46C1F30B0404F17E6403FB05410B
:1077640003B0BDE8304030F076BC01F46042B2F5BD
:10777400005FC9D1C1F30B0404491A46214403FB39
:107784000511EDE78AB103000080E00F00E00B0073
:1077940070B5054616461C46DBB14BF2346399427C
:1077A40010D1082C28BF08247F2241F2020123466D
:1077B400FFF788FF22460749284630F03DFC40B9D0
:1077C40041F2F011234632462846BDE87040FFF7E7
:1077D40079BF70BD8AB103002DE9F7430446E00781
:1077E4000F46154603D5DD213448FFF71BFBE90797
:1077F40003D5DE213148FFF715FB04F47043B3F5DC
:10780400805F3ED1C4F30B0404F17E646B1E2C4AEA
:1078140023449342264603D9E3212848FFF702FB79
:10782400DFF8989006EB050846453DD1A2070ED037
:107834004FF6FF7337F8022B02A943EA0243A01E56
:1078440041F8043D0422FFF713FF0234023DAB0765
:107854000ED0023D25F00103FB5A02A96FEA03434F
:107864006FEA1343042241F8043D6019FFF700FF57
:1078740025B12A4639462046FFF7FAFE03B0BDE893
:10788400F08304F46043B3F5005F05D10D4BC4F3FA
:107894000B041C442646C3E7EA210848FFF7C2FA52
:1078A4006FF00F060024BBE716F8013BFF2BBBD09B
:1078B400F4214846FFF7B6FAB6E700BF10B103005B
:1078C400FF1FE00F00E00B00FFF730BE1FB5144AA6
:1078D40001AB10685168128903C31A8001238DF823
:1078E40004300D238DF80A3003230E4C0821242084
:1078F4008DF80B3002F094FF01A9204603F0A5FE99
:107904004FF40061022342F21800074AC2F88411BE
:107914002350516041F21C02A35004B010BD00BFBB
:1079240092B103000080014A00E100E0014803F045
:107934007BBE00BF0080014AA52803D10021024874
:1079440003F063BE704700BF0080014A024B5868D1
:1079540000F00100704700BF0080014A024A536AE8
:10796400002BFCD1704700BF0080014A0020704703
:10797400002070477047000007B572B603F001F9A4
:107984008C4B8D495B6940228B6000230B764B76D0
:107994008B76F023CB760B774B778B77CA77802265
:1079A40081F8202081F82130E023602081F8223002
:1079B400824B81F8232083F8002383F8012383F882
:1079C400022383F8032383F8042383F8052383F82D
:1079D400062383F8072383F8082383F8092383F80D
:1079E4000A2383F80B2383F80C2383F80D2383F8ED
:1079F4000E2383F80F2383F8102383F8112383F8CD
:107A0400122383F8132383F8142383F8152383F8AC
:107A1400162383F8172383F8182383F8192383F88C
:107A24001A2383F81B2383F81C2383F81D2383F86C
:107A34001E2383F81F2383F8202383F821032020A7
:107A440083F8222383F8232383F8242383F825232C
:107A540083F8262383F8272383F8282383F829230C
:107A640083F82A2383F82B0383F82C0383F82D232C
:107A740083F82E2383F82F2383F8302383F83123CC
:107A840083F8322383F8332383F8342383F83523AC
:107A940083F8362383F8372383F8382383F839238C
:107AA40083F83A2383F83B2383F83C23CB6823F4FD
:107AB400E0631B041B0C43F0BF6343F40133CB604E
:107AC4004B6943F010034B614FF4E0234B6204F025
:107AD400A7FBFFF7D3FAEFF308834FF0CD31384A11
:107AE400043B934263D2374A002192B2364830F0C5
:107AF400D6FA62B6684603F05BFB344B9B6DDB033E
:107B040018D4334A136823F4FF0323F4FE4343F4E5
:107B1400BC1343F4A063136052F8043C23F4704391
:107B240043F4404342F8043C52F8043C43F4E06319
:107B340042F8043C9DF80130012B0FD19DF8003030
:107B440063B94FF000531B68224B1B68224B1B6820
:107B5400224B1B68224B1B68224B1B68224AD2F81B
:107B6400803043F00303C2F8803004F0ACFE0222FC
:107B74004FF040231A6704F0DDFA01F0ABFB002359
:107B840000938DF80430012368468DF8033003F028
:107B940095F800F0F3F818F09BFB04F097FE00F062
:107BA400FDF8124810F032F903B05DF804FB1960D7
:107BB400043B96E70040000000ED00E000E100E037
:107BC400A00E0020D00D0000A000002000C0004046
:107BD40034C00040004000200080002000C000208D
:107BE4000000012000400120008000405CFD0300F3
:107BF40040F2016018F0DABA04F09ABA04F099BAC3
:107C0400FEF750BB08B500210B20FEF749FBBDE889
:107C14000840FEF748BB08B1FCF7C7BCFCF7C4BC7E
:107C2400032000F09FBA000008B5FFF777FA044B71
:107C34000B289ABF00B203EB8000184608BD00BFB2
:107C4400E2B2030008B5FFF76FFA044BC0F30F224A
:107C540053F82230C0B203EB800008BDACB203007D
:107C640010B5FFF75BFA0446FFF75EFAC0B228B915
:107C7400012C24D164F07F04E4B216E0072CF9D877
:107C840001A353F824F000BFAF7C0000797C00000E
:107C9400AD7C0000B37C0000B37C0000B77C000026
:107CA400BB7C0000BF7C00000924204610BD0224D8
:107CB400FBE70324F9E70B24F7E70624F5E704467A
:107CC400F3E700BF38B50D46044688BB284B4A1E6F
:107CD400186050425041013D09F0DEFA032D46D8A8
:107CE400DFE805F002131E2001210846FCF75EFCC4
:107CF400FFF72CFE1F4B187010B1A520FFF71CFED8
:107D0400BDE83840012009F0C7BA02210120FCF780
:107D14004DFCFFF71BFE50B3BDE83840FFF71EBE15
:107D24000421F3E705210120BDE83840FCF73EBCFF
:107D3400104B1B781BB101210F4803F066FC631E36
:107D440058425841013C09F0C7FA032C0FD8DFE828
:107D540004F002080A0C012009F0BEFA01210020F7
:107D6400E2E70221FBE70421F9E70521F7E738BD43
:107D7400B8320020E53800200080014A42F2204158
:107D8400044AD2F820341B0C1B045350024A1360DB
:107D9400704700BF00C00340B42C002008B504F0B5
:107DA400F3FA18B18C210448FFF73CF8BDE8084009
:107DB4000249034804F098BB12B30300901D00204D
:107DC400F42C0020134A1449D2F82434D2F8202485
:107DD4001340124A9BB21360D1F80001400102D54E
:107DE4000868400106D4D1F80001800105D509686E
:107DF400880102D543F480331360074BD3F8001194
:107E0400490506D51B685B0542BF136843F400337C
:107E14001360704700C0034000E100E0B832002066
:107E2400012810B50AD0831E012B1CD904281CD0AC
:107E3400052801D102F02AFF002400E00446204670
:107E44000B4A012104F0D0FA02F090FE02F09DFEEC
:107E540004F070FB02F08CFE2046BDE81040044A9A
:107E6400002104F0C1BA0224E9E70324E7E700BFD4
:107E74008EB30300FFF7D4BF2DE9F04F89B00FF0A4
:107E8400B9FF0746002840F0DC806F4E6F4D316823
:107E9400286817F027FB0446002827D033683C469F
:107EA400D3E900019A6912689047336804A89B6972
:107EB4009B689847336802209B69DB68984732685F
:107EC40005985368E7B2B3FBF0F3BB42916904F140
:107ED400010442D8CB680020984733689B695B68EB
:107EE40098473168286817F0FDFA04460026DFF841
:107EF4008891002C53D1564B4FEA8608F35C002B33
:107F040031D1A246534BF35C0193534B03EB080B63
:107F1400019B5FFA8AF7BB42286853D84F4BF35C46
:107F2400002B3CD04C4B019F9844FBB27E2B28681D
:107F340035D8D8F8003003AA07EB030A514602AB40
:107F440017F012FD48452AD05146286817F052FD13
:107F5400013704460028E8D021E012680B6907FBCA
:107F640000209847ABE73C4B03AA53F826702868D7
:107F740002AB394617F0F8FC484507D078B9039BA3
:107F8400012B0CD03946286817F034FD344B3946A0
:107F940053F8083028681A6817F010FC04460136B4
:107FA400262EA6D1B4FA84F32E4A5B0913702E4B05
:107FB4009C4240D02DD8002C32D0013B9C423ED074
:107FC400C5242DE0DBF8003003AA1F44394602AB78
:107FD40017F0CAFC48450AD010B10AF1010A97E724
:107FE400039B8BB9214B029AF35C9A42F5D01F4B49
:107FF4001B4A9B5D52F808203946286817F044FB59
:108004000028EAD0044689E73946286817F0F2FCCC
:10801400EDE7174B9C4210D004339C42D0D1C124CD
:108024002B681B7C1BB1D3211248FEF7FBFE2046B4
:1080340009B0BDE8F08FC324F2E7C424F0E7C224FA
:10804400EEE7C624F3E700BF101E00200C1E00203C
:1080540080890300C0880300CC890300A68903003B
:10806400E8880300DA38002002E000F0648A0300A4
:1080740004E000F098B303000BE000F0252970B58C
:1080840006460C4615461AD8144A127822B3144AE6
:108094001068144A52F82110134A125D3AB132465C
:1080A40017F0DAFBC0B1BDE87040FCF754BE7F2D79
:1080B40008BF00253246294417F032FBF2E7FF29B6
:1080C40003D9BDE87040FFF763BB40F20111BDE87E
:1080D40070400648FEF7A6BE70BD00BFDA38002027
:1080E4000C1E0020CC8903008089030098B3030090
:1080F4002528F8B504460D46164619D814490978BA
:1081040029B31449144F0868144951F824103C5DEC
:108114003CB1126817F052FBC8B1BDE8F840FCF757
:108124001ABE7F2D08BF0025294417F0ADFAF3E7E6
:10813400FF2805D91A463146BDE8F840FFF74CBB85
:108144004FF49A71BDE8F8400548FEF76BBEF8BDE0
:10815400DA3800200C1E002080890300CC8903003B
:1081640098B3030008B5084B1B7863B1074B002292
:1081740053F82010064B186817F0AEFB18B1BDE891
:108184000840FCF7E8BD08BDDA380020CC890300BC
:108194000C1E002070B5164685180AB9304470BD0F
:1081A40001F00F030A2B34BF30243724013A23444F
:1081B400090905F8013DD2B2EFE70000F0B5F9B1C5
:1081C40000281CDA2D23B0F1004F137000D0404278
:1081D400012115E0801B8642ECB205F10105F9D9B5
:1081E40004B927B101274D1C30345454E9B201338A
:1081F400092B09D1303050540131C8B2F0BD0021EF
:1082040000231F46DFF808C05CF823600025E2E77E
:1082140010B403002DE9F04F4FF0000B95B002AC01
:1082240081468A4617461D465E46A0463B7863B99A
:1082340002ABE41AE4B2224619465046C847002865
:1082440040F093803444E0B290E0252B13D0BBF18E
:10825400000F14D12370013412AB9C426DD3A4EBF4
:108264000804E4B2224641465046C84700287CD15F
:108274002644F6B260E0BBF1000F00D101373B7831
:10828400632B00F092801BD8392B09D8302B80F057
:108294009E80002BCCD0252B51D04FF0000BDBE778
:1082A400582B00F08B80622BF7D14FF0000B2B681A
:1082B40001936B680093009B9B4543D10835ECE721
:1082C400702B1ED017D8642B01D06C2BE5D16C2BEE
:1082D40005F1040B28686CD17B78752B14BF012140
:1082E400002101D0642B00D101372246FFF766FF3D
:1082F40004445D46D1E7752BE9D0782B5ED0732B0F
:10830400CBD1A4EB0804E4B2224602A9504605F1FD
:10831400040B2D68C84740BB2644F6B2C4B22B5D9B
:108324000130002BFAD1224629465046C847E0B90D
:108334005D4683462644F6B24446013776E7237009
:108344000134AAE7019B204613F80B100222FFF721
:1083540021FF12AB984204460ED3A0EB0804E4B20A
:10836400224641465046C84718B1002015B0BDE822
:10837400F08F26444446F6B2009B013B5B4582BF26
:1083840020232370013412AB9C420BD3A4EB0804CA
:10839400E4B2224641465046C8470028E5D1264467
:1083A4004446F6B20BF1010B85E72B6804352370C4
:1083B400C6E7752B0CBF0021012196E72046022257
:1083C4002978FFF7E7FE05F1040B044691E77A7874
:1083D40002F0DF02582A19D1322B07F1010B09D11F
:1083E4000422204629882F1DFFF7D4FE3D4604466B
:1083F4005F4652E7342B09D12F1D2D680422290C26
:108404002046FFF7C7FE0422A9B2EDE74FF0010BA7
:1084140022E70EB403B503AA52F8041B019208F034
:10842400F1FFC0B202B05DF804EB03B07047000086
:108434000149FFF7EEBF00BF528103000EB433B50C
:1084440005AA52F8041B0546019208F0DBFF044616
:108454002846FFF7EDFFE0B202B0BDE8304003B0BC
:10846400704708B508F0CEFFC0B208BD2DE9F04F43
:108474009B46584B85B01B78064689461546109F87
:108484009DF844A0DDF85080002B00F09280072A6C
:1084940000F291800E9B002B00F08D800F9B002B2F
:1084A40000F08980129BB3F5006F00F384800128EB
:1084B40001D1002F7FD0484B03EB05131B7B002B0E
:1084C4007BD0464C1022002168462FF0E8FD04EBD7
:1084D40045141022B9F1000F5CD1494620462FF013
:1084E400DEFDA37843F01003A370E37843F0300378
:1084F400E370BAF1000F03D1DBB243F00303E3707E
:1085040036496A01129B885A013B63F30E100E9B95
:1085140001EB020C8852CCF808300F9B9DF84C10EC
:10852400CCF804309CF80330012E61F38303CDF8BA
:1085340000B08CF8033042D113230CF1100ECCF8A8
:108544000C309CE80F008EE80F006FF00301DCF89C
:108554001C20B9F1010F61F39F02CCF81C20CCF868
:10856400147004D10F9BCCF80470CCF81830002799
:1085740019492A018B1841F80280159A28465A6035
:108584009F605E732246694602F08CFC384605B053
:10859400BDE8F08F002120462FF081FD1023A37049
:1085A4000323E370BAF1000FAAD1DBB243F0300326
:1085B400A5E70B48EBE70B48E9E70B48E7E7B8F119
:1085C400000FD4D19CF8023068F304138CF8023005
:1085D400CDE700BFC537002074240020B42B002051
:1085E400028000F0018000F0078000F038B5104BE5
:1085F40005461B78BBB1C0B102F0CBFA00230D498C
:1086040001EB0312147B3CB92B6001231460137338
:1086140002F0C5FA204638BD0133082BF0D102F030
:10862400BEFA0548F7E70548F5E70548F3E700BF54
:10863400C537002074240020048000F0028000F07C
:10864400018000F038B502F0A4FA002305460A4A76
:10865400D1180C7B5CB91033802BF9D102F0D4FB18
:10866400064B28461C7002F09AFA204638BD28466C
:1086740002F095FA0248F9E774240020C537002077
:10868400058000F00D4B10B51B78044693B1072804
:1086940012D802F07EFA0A4B03EB04131A7B2AB1B8
:1086A40000241C7302F07BFA204610BD02F077FA16
:1086B4000448FAE70448F8E70448F6E7C537002019
:1086C40074240020068000F0028000F0018000F095
:1086D400164B13B51868002301908DF8043002F08E
:1086E40058FA134B1C7824B102F059FA114802B01D
:1086F40010BD01221A7002F052FA0F4B1C731C7742
:1087040083F82C4083F83C4083F84C4083F85C4069
:1087140083F86C4083F87C4004230DEB03008DF850
:10872400073002F095FB2046E1E700BF34B40300B4
:10873400C5370020038000F07424002010B588B0F1
:108744000E9C009207940D9C024606949DF83040BE
:1087540005940B9C04949DF8284003940024CDE9CF
:10876400013420460B462146FFF780FE08B010BDB9
:1087740010B588B00E9C009207940D9C0246069496
:108784009DF8304005940B9C04949DF82840039474
:108794000024CDE9013420460B460121FFF766FE93
:1087A40008B010BD08B50A4B1B785BB107280BD87D
:1087B400084B03EB00131B7B43B1002102F038FB91
:1087C400002008BD0448FCE70448FAE70448F8E739
:1087D400C537002074240020028000F0018000F0DE
:1087E400078000F008B50A4B1B785BB107280BD84B
:1087F400084B03EB00131B7B43B1012102F018FB70
:10880400002008BD0448FCE70448FAE70448F8E7F8
:10881400C537002074240020028000F0018000F09D
:10882400078000F008B50A4B1B7853B107280AD813
:10883400084B03EB00131B7B3BB102F083FB0020CE
:1088440008BD0548FCE70548FAE70548F8E700BF16
:10885400C537002074240020028000F0018000F05D
:10886400078000F00D4B1B7893B1072812D889B10B
:108874000B4B03EB00131B7B73B10A4BDA6A012326
:1088840003FA00F010401ABF00200B700870704704
:10889400054870470548704705487047C5370020AC
:1088A4007424002000000440028000F0018000F0E5
:1088B400078000F00B4B10B51B780C4663B10728FA
:1088C4000CD859B1084B03EB00131B7B43B102F0E6
:1088D4004BFB2060002010BD0448FCE70448FAE785
:1088E4000448F8E7C537002074240020028000F013
:1088F400018000F0078000F02DE9F843174B1F6D4D
:108904005B6D1F4000D5FEE701260025144CDFF8FF
:108914005480DFF85490374217D02368C8F80060B9
:108924009BB1A16862680131A16028469847637BC6
:10893400012B0AD148B909EB4513197B1A7F60F35F
:10894400410160F3410219731A770135082D4FEA8A
:10895400460604F11004DED1BDE8F88300000440AB
:108964007424002050200440B42B002070B5044629
:108974000125084E04B970BD94FAA4F0B0FA80F051
:1089840005FA00F324EA030456F82030002BF1D052
:108994009847EFE7002D00204FF00072044BC3F816
:1089A40080211A604FF08062C3F880211A607047FA
:1089B40000E100E038B504460D4602F0EAF8034B46
:1089C40043F82450BDE8384002F0E9B8002D0020F7
:1089D400084BD3F82404D3F82024104042F2204258
:1089E40020F42A5020F02A004004400C9850FFF74D
:1089F400BDBF00BF00C00340084BD3F82404D3F824
:108A04002024104042F2204220F4AA4020F05500D5
:108A14000004000C9850FFF7A9BF00BF00C003403A
:108A2400104A30B5136841611546ABB910608360D4
:108A340011E0091B9C6841611A467CB123465C69BC
:108A44008C42F6D9002CF4D052B19060836013B1FB
:108A54005A69511A596130BD0022F0E72346F4E700
:108A64002860F3E76032002010B500F043FB094BA7
:108A7400094A196831B11368C41A4B69A34203D374
:108A84001B1B4B61106003E0C01A002310604B6194
:108A940010BD00BF60320020342E002038B50F4DC9
:108AA40002202B685C690E4B1B681C4400F056FBCB
:108AB400204600F027FB00230A492A680B70D0885F
:108AC400800702D501230B7038BD9268002AFBD0C1
:108AD40050690344012BF2D9F6E700BF603200204D
:108AE400342E0020F037002070B59DF8145016463F
:108AF40005710025049A8560BDF818500446C580A8
:108B04000260C0E903360D4629B961610BB1114613
:108B1400984796B1354602F03CF80646FFF7A4FFA5
:108B240029462046FFF77CFF054B1B68A34201D171
:108B3400FFF7B4FF304602F032F8002070BD00BFEA
:108B44006032002000210C4A13687BB183420AD1B1
:108B5400836879B18B6083681BB15A6941690A449F
:108B64005A610020704719469B68EEE70028EFD051
:108B7400022070471360EEE76032002070B502F007
:108B840008F8144E05463478FCB9134B1C60134B9B
:108B94001C60134B1C8000F073FA012000F0DEFA15
:108BA40000F02AFB0F4B0246186020B9284601F05A
:108BB400F6FF232070BD23460B4840F2E7312FF027
:108BC40079F80A4B186001233370284601F0E7FF57
:108BD4000020EFE7CC37002060320020342E002044
:108BE4008A3400205C32002018FCFFFF3C2E002059
:108BF4002DE9F0410546F8B101F0CBFF0F4F0646D1
:108C0400FFF732FF2846D7F80080FFF79BFF0446A2
:108C140028B1304601F0C3FF2046BDE8F081A845E5
:108C24003B6803D123B1FFF739FFF2E7002BF0D102
:108C3400022000F09FFAECE72224EDE760320020E6
:108C4400F0B50D4685B016461F46044680B1FFF7C1
:108C5400CFFFBDF82C30002202939DF8283029461E
:108C6400CDE9007320463346FFF73EFF05B0F0BD63
:108C74002220FBE738B50C46054698B191B1002394
:108C84000B7001F086FF0121074B1B680BB12278A2
:108C94001AB101F084FF002038BD9D420CBF217041
:108CA4009B68F3E72220F7E760320020F0B51F4607
:108CB400002387B00D4616468DF817300446A0B140
:108CC4000DF11701FFF7D6FF9DF817207AB9BDF80B
:108CD4003430294602939DF830302046CDE90073A4
:108CE4003346FFF701FF07B0F0BD2220FBE7032066
:108CF400F9E7F0B51F46002387B00D4616468DF8F8
:108D040017300446A8B10DF11701FFF7B3FF9DF822
:108D1400173083B9BDF834302A4602939DF83030B9
:108D24002946CDE9007320463346FFF7DDFE07B040
:108D3400F0BD2220FBE70220F9E70000F8B50C465D
:108D44000646C8B1C1B101F024FF0546FFF78CFE09
:108D540073692360134B1B68B3420FD023B92846B1
:108D640001F01DFF03201CE0596922689B680A4436
:108D74002260F1E700230FE0222012E0276800F0D0
:108D8400B9F9094E3368C01A8742F3D900F0B2F931
:108D94003368C01A23681B1A2846236001F0FFFEBB
:108DA4000020F8BD60320020342E0020F8B50746BC
:108DB4000E4601F0EEFE00240546114B1B6823B954
:108DC400284601F0ECFE1B2015E05A691444DA88A9
:108DD400BA4213D100F08EF90A4F3B68C01AA04280
:108DE4000AD200F087F93B68C01A201A306028467E
:108DF40001F0D5FE0020F8BD0020F7E79B68DEE710
:108E040060320020342E0020014B1878704700BFD8
:108E1400F037002038B501F0BCFE054600F06AF9D1
:108E24000446284601F0BBFE204638BD70B501F06B
:108E3400B0FE064600F05EF9094B05461C88012089
:108E4400A4B200F0AFF918B100F054F905460134AA
:108E5400304601F0A4FE0022214642EA050070BD1E
:108E64008A340020014B1868704700BF5C32002030
:108E74000A4B10B51B680C4683420CD3084B4FF4C5
:108E84007A7219680023A0FB01012EF013FF013050
:108E94002060002010BD2120FCE700BF3C2E0020F4
:108EA4005C320020104B10B51A684FF47A73A0FBA3
:108EB4000301A2B1531E134211D1B2FA82F2C2F1DC
:108EC4001F02C2F12004A2F1200301FA04F420FAE3
:108ED40002F2224321FA03F342EA030010BD002305
:108EE4002EF0E8FEFAE700BF5C320020F8B5164623
:108EF4001BA3D3E900238B4208BF82422AD3174B1A
:108F04001A684FF47A73A0FB034503FB0155C2B101
:108F1400531E13EA020014D1B2FA82F2C2F11F0204
:108F2400C2F12007A2F1200124FA02F305FA07F79F
:108F34003B4325FA01F10B4325FA02F2C6E900325C
:108F4400F8BD0023204629462EF0B4FEC6E90001F0
:108F54000020F5E72120F3E7AFF300805C32002026
:108F6400EFA7C64B37894100C2072DE9F84F0446E5
:108F74000BD53F4A138801339BB21380FFF774FD6E
:108F84003C4B1B680BB1FFF789FDA3076DD500F0BF
:108F9400B1F8394F00263D688046451B01F0F9FDC4
:108FA400B24683463246334B1C6814B16369AB4204
:108FB40014D9012E314B51D1D288022A4ED11E70C0
:108FC400002C4ED06369C7F800805D1B6561FFF714
:108FD40065FD5846BDE8F84F01F0E1BD23462A4639
:108FE400C7F800805969914209D8187994F804C0E7
:108FF400521A844588BF1C469B68002BF2D1584600
:1090040001F0CDFDD4F814B0C4F814A001F0C1FDF2
:1090140081462046FFF796FD484601F0C0FD2369CE
:109024004BB101F0B6FD814621692046FFF7F8FCFB
:10903400484601F0B4FDE36813B12168204698471F
:1090440000F058F8D844A5EB08058146054401F022
:10905400A0FD013683462246C846A4E700221A70C2
:10906400AEE7022000F086F8B3E7BDE8F88F00BF52
:109074008A34002060320020342E0020CC380020B6
:109084001FB50024184B18689A88029053F8060FED
:10909400ADF80C201B79009002A88DF804308DF8EF
:1090A40008408DF80C4001F0E9FF694601208DF875
:1090B400004001F0A7FF4FF090431F219A6922F06E
:1090C4001F029A61094A11609A6A12F00802FBD1E0
:1090D4001A62012001F0B0FF4FF48062044BC3F820
:1090E40080211A6004B010BD38B403001420004875
:1090F40000E100E04FF090439A6A1207FCD4186A2A
:10910400704700004FF09042936A1907FCD4136A29
:10911400116C5269120704D4CA1A022A01D899425E
:109124000ED1C21A012A98BF981CB0F1FF3F28BF84
:1091340001304FF0904318649A6942F008029A6132
:10914400054A13783BB14FF09041CB6B43F00203D7
:10915400CB63002313707047B221002082074FF0C5
:10916400904200F00103916948BF43F008030B43A8
:1091740093617047830700F001020AD50121084B6F
:1091840042F0080219704FF09041CB6B23F00303B7
:10919400CB634FF090418B6923EA02038B617047E4
:1091A400B22100204FF0904301285B6904D00228CB
:1091B40005D1C3F3C000704703F0010070470020DD
:1091C4007047000010B501F0E4FC4FF090430446F2
:1091D4005B691A07074A03F0010003F00D0348BF57
:1091E40040F002001360FFF7BFFE2046BDE81040C8
:1091F40001F0D5BC142000481C2001F0D3B90000B4
:10920400002211462D48F0B503682D4D54592CB158
:109214001E68AC18002E3DD1234601210832282AAD
:10922400F4D101B10360002214462649264E0B688E
:1092340095592DB11F68B518002F32D12B46012442
:109244000832282AF4D104B10B6000680368002BAB
:109254002FD04FF04022936F007923F0FF7323F453
:10926400803343EA00439367184B4FF00042096888
:109274001A600B68FBB14FF04022936F097923F415
:10928400FF7323F001030B439367104B4FF08042AD
:109294001A60F0BD1E792779B74284BF23460121A5
:1092A400BCE71F7995F804C0BC453CBF2B4601249C
:1092B400C6E7074BD9E7064BE8E700BF1C2E0020A2
:1092C4000C320020382E0020343200206850004038
:1092D4006860004010B5012228240F4B00211A7049
:1092E4000E4822462EF0DBFE224600210C482EF0CA
:1092F400D6FE0C4B0C4A13600C4A13604FF04043EB
:109304000B4A1360536020220A4BC3F880211A6071
:10931400FFF776FF002010BDB33600200C3200208A
:10932400343200209C2E00201C2E0020382E0020D9
:109334006460004000E100E04FF04022D2F8880071
:10934400D2F88830C0F38800C3F388039842F5D17B
:109354006FF48873184440B2704700004FF0402205
:10936400936E526E10B5134013F0804211D0114B1E
:109374001B681C682CB1002119605960FFF7DCFFE1
:10938400A0474FF080420C4B1A60BDE81040FFF735
:1093940037BF002BF9DA094B1B681C682CB11A6023
:1093A4005A60FFF7C9FF0121A047034B4FF0004269
:1093B400EAE700BF382E0020646000401C2E002025
:1093C400FFF7CCBF012203685A619A69D207FCD522
:1093D40041F2AC52042103795B0103F1804303F5AC
:1093E400703399507047000038B141B1013AB2F579
:1093F400006F044838BF0020704703487047014895
:10940400704700BF037000F0027000F038B50446E6
:109414000D4601F0BEFBA28892B222B92A6001F087
:10942400BEFB064838BD1422638802FB034308339D
:109434002B6001F0B4FB0020F4E700BF0B7000F0D8
:1094440038B504460D4601F0A4FBA3889BB223B9AA
:109454002B6001F0A4FB0C4838BD14226388E1881A
:1094640002FB034308332B6063885A1C92FBF1F31D
:1094740001FB13239BB26380A388013B9BB2A380AF
:1094840001F08DFB0020E7E70B7000F090F831301D
:10949400022B0BD13022437F90F821005A43044B16
:1094A4009B5823FA00F000F0010070470020704739
:1094B40014C00340002313B51C4A52F8234094F807
:1094C400211081420ED00133042BF6D102B010BD1D
:1094D4000028FBD19DF80730002BF7D0A068FFF7D8
:1094E40061F9F3E794F83130022BEFD12046FFF70E
:1094F400CDFF637E2076022BE8D194F82E3003F062
:10950400FF02002BE2D102A901F8012DA068FFF7A8
:10951400A9F9237E1BB194F82F30002BD8D0002357
:10952400A06884F82F30FFF75DF9CFE76832002098
:10953400F8B5044617460D4601F02BFBA388E288D4
:1095440006469A4205D800233B6001F028FB1648E2
:10955400F8BD1422238805F1100C02FB03430833E1
:109564002A4603CA624518605960154603F1080388
:10957400F6D11068142218602388E18802FB0343A3
:1095840008333B60238830465A1C92FBF1F301FBFD
:1095940013239BB22380A38801339BB2A38001F0E1
:1095A400FEFA0020D4E700BF0A7000F038B5044684
:1095B40001F0EFFA616B05460139616319B9044A98
:1095C400012002F011FF2846BDE8384001F0E7BA57
:1095D40060B4030038B5044601F0DBFA636B05465A
:1095E40023B90121054A084602F0FEFE636B2846B2
:1095F40001336363BDE8384001F0D1BA60B40300BD
:10960400012230B590F8324087B080F82C207CB924
:10961400094D0368CDE9024504904C682433CDE933
:1096240000240A684169C068FFF7A2F807B030BD9A
:10963400002380F82C30F9E7AD9F00000123F0B53A
:1096440080F82D3090F8323089B004460E4663BB62
:10965400056801F09EFA0DF11F01074615483C35D7
:10966400FFF708FB40B99DF81F302BB11148FFF7F5
:10967400BFFA2046FFF79AFF3846012701F08FFA18
:10968400204684F83870FFF7A5FF0B4B049403932E
:109694000023029373682A46CDE900732169336875
:1096A400A068FFF74BF809B0F0BD002380F82D3017
:1096B400F9E700BFD03E0020C1960000F0B585B0A8
:1096C40003A9906A1446FFF7A1FE0646206801F03C
:1096D400C3FE0546FFF7C6FB24214143B1FBF5F168
:1096E40000252346CDE90055164A01311648FFF7F7
:1096F400DDFA164B9E421FD0039B1D619D6001F055
:1097040048FA039A0746D66826B1D2E900232946C7
:109714002046B04703A9A06AFFF792FEA06A838897
:109724009BB263B103A9FFF771FE03992046FFF7CB
:1097340085FF384601F033FA012005B0F0BD84F806
:109744002D30F6E755970000D03E00200B7000F056
:1097540073B508680D46846914F0200407D00846E0
:10976400FFF724FF022385F8383002B070BD01F002
:1097740073FE0646FFF776FB24225043B0FBF6F057
:10978400CDE90044411C2B46024A0348FFF78EFAF8
:10979400EBE700BF55970000D03E00202DE9F341D0
:1097A4000D460446002800F0868001F0F2F9012DF0
:1097B400064637D1A36A9B889BB2002B39D0A06898
:1097C400FFF730F80023A06A84F82D3083889BB219
:1097D400002B34D1226893699B04FCD5023D012DF2
:1097E4001BD8E068FFF71EF80023606A84F82C3069
:1097F40083889BB2002B41D194F83130032B0CD0D9
:1098040042F2AC52042123795B0103F1804303F556
:1098140070339950022223685A61304601F0BFF92F
:10982400002009E0022D48D1636A9B889BB2002B7B
:10983400D4D101F0B4F9264802B0BDE8F08101A901
:10984400FFF7E4FD0199A0680831FFF733F8214FD1
:10985400019B1F61A06A83889BB2002BBAD001A927
:10986400FFF7EEFD019BD3F80C80B8F1000FF1D0A7
:109874009B68002239462046C047EBE76946FFF75C
:10988400C5FD0099E0680831FFF714F8114F009BFB
:109894001F61606A83889BB2002BADD06946FFF7D5
:1098A400CFFD009BDD68002DF3D09B680022394674
:1098B4002046A847EDE70848BEE7032D8ED1A36AEA
:1098C4009B889BB2002B7FF47AAF636A73E700BF77
:1098D400087000F0097000F0027000F003689869E5
:1098E4007047436A9888C0B270472DE9F34198469F
:1098F40000230546406A0E4684881746A4B2CDE983
:1099040000333CB16946FFF781FD01A90446E868CC
:10991400FEF7D0FF009969B164B94868019BC01A89
:109924003860C8F800300B6833602B68986902B05F
:10993400BDE8F0810021C8F8001039603160F4E717
:10994400836A9888C0B270472DE9F3419846002392
:109954000546806A0E4684881746A4B2CDE90033D2
:109964003CB16946FFF752FD01A90446A868FEF719
:10997400A1FF009969B164B94868019BC01A3860B5
:10998400C8F800300B6833602B68986902B0BDE8F2
:10999400F0810021C8F8001039603160F4E7007EDE
:1099A40070472DE9F04104460F469046FFF71CFD31
:1099B4000546002839D1152001F010F90646A26A9F
:1099C40093889BB213B194F82E308BB323689E69AD
:1099D40016F002060ED104225A619A699207FCD548
:1099E40041F2AC52102123795B0103F1804303F56A
:1099F40070339950012384F8303094F8323033B9FD
:109A0400B8444745206818D183699B06FCD566B9DC
:109A140042F2AC52102123795B0103F1804303F538
:109A240070339950082223685A612846BDE8F081B2
:109A3400002EC5D0FEF760FFC1E717F8011B01F047
:109A4400DFFDDEE710B5044680B190F82E302BB967
:109A5400FFF71CFD10B9A068FEF7A4FE002094F8DF
:109A64002E300133DBB284F82E3010BD0048FCE701
:109A7400027000F010B50446A0B190F82E309BB1EE
:109A840090F82E30012B05D1FFF700FD10B9A06826
:109A9400FEF7A8FE002094F82E30013BDBB284F8D8
:109AA4002E3010BD0148FCE70148FAE7027000F0CF
:109AB400057000F037B590F831500446022D1ED1E0
:109AC400012190F82220457E837F01FA02F23020A2
:109AD400154925B900FB031342F2100105E0012DDD
:109AE40007D100FB031341F210015A50002003B0C8
:109AF40030BD247E00FB0313002CF4D1ECE7012DD0
:109B0400F4D1037E73B911238DF80730FFF79AFF60
:109B14002A460DF107012046FFF743FF2046FFF7D1
:109B2400A9FFE3E71323EFE700C00340F0B50446C1
:109B34008BB0A24F03AE0D460FCF0FC697E80700B8
:109B440086E807001CB99E4C20460BB0F0BD0DB949
:109B54009C4CF9E73C22002120462EF0A0FA9A49B9
:109B64009A4B0A782AB9C3E90022C3E902220122E6
:109B74000A70002253F822108C420AD00132042ABF
:109B8400F8D1002253F82210002940F0D08043F885
:109B940022402B7D286884F831300023206084F82B
:109BA40032302B7B2371012384F83830884B984260
:109BB40040F0C280212384F82330864B23614FF484
:109BC400802300266361D5E90723626216805680EC
:109BD400968084F82C60A3621E805E809E806B68F1
:109BE40003A90593EB8984F82D60ADF81C302B8A0A
:109BF40084F82F60ADF81A30AB7C8DF80C608DF8CA
:109C04001830EB7C8DF81E3005238DF8193001F0E7
:109C140079FC14212A7B704B287A03EB4217C7F88E
:109C2400AC15A97A2E3240EA014C03EB4213C3F877
